{
  "_format": "hh-sol-artifact-1",
  "contractName": "BurnManager",
  "sourceName": "tokenomics/BurnManager.sol",
  "abi": [
    {
      "inputs": [
        {
          "internalType": "address",
          "name": "tokenAddress",
          "type": "address"
        }
      ],
      "stateMutability": "nonpayable",
      "type": "constructor"
    },
    {
      "inputs": [
        {
          "internalType": "address",
          "name": "from",
          "type": "address"
        },
        {
          "internalType": "uint256",
          "name": "amount",
          "type": "uint256"
        }
      ],
      "name": "burn",
      "outputs": [],
      "stateMutability": "nonpayable",
      "type": "function"
    },
    {
      "inputs": [],
      "name": "token",
      "outputs": [
        {
          "internalType": "contract DRTToken",
          "name": "",
          "type": "address"
        }
      ],
      "stateMutability": "view",
      "type": "function"
    }
  ],
  "bytecode": "0x60a060405234801561001057600080fd5b50604051610718380380610718833981810160405281019061003291906100cf565b8073ffffffffffffffffffffffffffffffffffffffff1660808173ffffffffffffffffffffffffffffffffffffffff1681525050506100fc565b600080fd5b600073ffffffffffffffffffffffffffffffffffffffff82169050919050565b600061009c82610071565b9050919050565b6100ac81610091565b81146100b757600080fd5b50565b6000815190506100c9816100a3565b92915050565b6000602082840312156100e5576100e461006c565b5b60006100f3848285016100ba565b91505092915050565b6080516105ed61012b60003960008181607801528181610155015281816101f6015261028501526105ed6000f3fe608060405234801561001057600080fd5b50600436106100365760003560e01c80639dc29fac1461003b578063fc0c546a14610057575b600080fd5b61005560048036038101906100509190610340565b610075565b005b61005f610283565b60405161006c91906103df565b60405180910390f35b807f000000000000000000000000000000000000000000000000000000000000000073ffffffffffffffffffffffffffffffffffffffff1663dd62ed3e84306040518363ffffffff1660e01b81526004016100d1929190610409565b602060405180830381865afa1580156100ee573d6000803e3d6000fd5b505050506040513d601f19601f820116820180604052508101906101129190610447565b1015610153576040517f08c379a000000000000000000000000000000000000000000000000000000000815260040161014a906104d1565b60405180910390fd5b7f000000000000000000000000000000000000000000000000000000000000000073ffffffffffffffffffffffffffffffffffffffff166323b872dd8330846040518463ffffffff1660e01b81526004016101b093929190610500565b6020604051808303816000875af11580156101cf573d6000803e3d6000fd5b505050506040513d601f19601f820116820180604052508101906101f3919061056f565b507f000000000000000000000000000000000000000000000000000000000000000073ffffffffffffffffffffffffffffffffffffffff166342966c68826040518263ffffffff1660e01b815260040161024d919061059c565b600060405180830381600087803b15801561026757600080fd5b505af115801561027b573d6000803e3d6000fd5b505050505050565b7f000000000000000000000000000000000000000000000000000000000000000081565b600080fd5b600073ffffffffffffffffffffffffffffffffffffffff82169050919050565b60006102d7826102ac565b9050919050565b6102e7816102cc565b81146102f257600080fd5b50565b600081359050610304816102de565b92915050565b6000819050919050565b61031d8161030a565b811461032857600080fd5b50565b60008135905061033a81610314565b92915050565b60008060408385031215610357576103566102a7565b5b6000610365858286016102f5565b92505060206103768582860161032b565b9150509250929050565b6000819050919050565b60006103a56103a061039b846102ac565b610380565b6102ac565b9050919050565b60006103b78261038a565b9050919050565b60006103c9826103ac565b9050919050565b6103d9816103be565b82525050565b60006020820190506103f460008301846103d0565b92915050565b610403816102cc565b82525050565b600060408201905061041e60008301856103fa565b61042b60208301846103fa565b9392505050565b60008151905061044181610314565b92915050565b60006020828403121561045d5761045c6102a7565b5b600061046b84828501610432565b91505092915050565b600082825260208201905092915050565b7f616c6c6f77616e63650000000000000000000000000000000000000000000000600082015250565b60006104bb600983610474565b91506104c682610485565b602082019050919050565b600060208201905081810360008301526104ea816104ae565b9050919050565b6104fa8161030a565b82525050565b600060608201905061051560008301866103fa565b61052260208301856103fa565b61052f60408301846104f1565b949350505050565b60008115159050919050565b61054c81610537565b811461055757600080fd5b50565b60008151905061056981610543565b92915050565b600060208284031215610585576105846102a7565b5b60006105938482850161055a565b91505092915050565b60006020820190506105b160008301846104f1565b9291505056fea26469706673582212204a814929461276d60e9940515eaeb4548f9e14ff78b5cc545891c237658fdd5c64736f6c63430008140033",
  "linkReferences": {},
  "deployedLinkReferences": {}
}