{
  "_format": "hh-sol-artifact-1",
  "contractName": "DytallixBridge",
  "sourceName": "contracts/DytallixBridge.sol",
  "abi": [
    {
      "inputs": [],
      "stateMutability": "nonpayable",
      "type": "constructor"
    },
    {
      "anonymous": false,
      "inputs": [
        {
          "indexed": true,
          "internalType": "address",
          "name": "asset",
          "type": "address"
        }
      ],
      "name": "AssetAdded",
      "type": "event"
    },
    {
      "anonymous": false,
      "inputs": [
        {
          "indexed": true,
          "internalType": "address",
          "name": "asset",
          "type": "address"
        },
        {
          "indexed": true,
          "internalType": "address",
          "name": "sender",
          "type": "address"
        },
        {
          "indexed": false,
          "internalType": "uint256",
          "name": "amount",
          "type": "uint256"
        },
        {
          "indexed": false,
          "internalType": "string",
          "name": "destinationChain",
          "type": "string"
        },
        {
          "indexed": false,
          "internalType": "address",
          "name": "recipient",
          "type": "address"
        },
        {
          "indexed": false,
          "internalType": "uint256",
          "name": "nonce",
          "type": "uint256"
        }
      ],
      "name": "AssetLocked",
      "type": "event"
    },
    {
      "anonymous": false,
      "inputs": [
        {
          "indexed": true,
          "internalType": "address",
          "name": "asset",
          "type": "address"
        }
      ],
      "name": "AssetRemoved",
      "type": "event"
    },
    {
      "anonymous": false,
      "inputs": [
        {
          "indexed": true,
          "internalType": "address",
          "name": "asset",
          "type": "address"
        },
        {
          "indexed": true,
          "internalType": "address",
          "name": "recipient",
          "type": "address"
        },
        {
          "indexed": false,
          "internalType": "uint256",
          "name": "amount",
          "type": "uint256"
        },
        {
          "indexed": true,
          "internalType": "bytes32",
          "name": "transactionId",
          "type": "bytes32"
        }
      ],
      "name": "AssetUnlocked",
      "type": "event"
    },
    {
      "anonymous": false,
      "inputs": [
        {
          "indexed": false,
          "internalType": "uint256",
          "name": "threshold",
          "type": "uint256"
        },
        {
          "indexed": false,
          "internalType": "uint256",
          "name": "feeBps",
          "type": "uint256"
        }
      ],
      "name": "BridgeConfigUpdated",
      "type": "event"
    },
    {
      "anonymous": false,
      "inputs": [
        {
          "indexed": false,
          "internalType": "uint8",
          "name": "version",
          "type": "uint8"
        }
      ],
      "name": "Initialized",
      "type": "event"
    },
    {
      "anonymous": false,
      "inputs": [
        {
          "indexed": false,
          "internalType": "address",
          "name": "account",
          "type": "address"
        }
      ],
      "name": "Paused",
      "type": "event"
    },
    {
      "anonymous": false,
      "inputs": [
        {
          "indexed": true,
          "internalType": "bytes32",
          "name": "role",
          "type": "bytes32"
        },
        {
          "indexed": true,
          "internalType": "bytes32",
          "name": "previousAdminRole",
          "type": "bytes32"
        },
        {
          "indexed": true,
          "internalType": "bytes32",
          "name": "newAdminRole",
          "type": "bytes32"
        }
      ],
      "name": "RoleAdminChanged",
      "type": "event"
    },
    {
      "anonymous": false,
      "inputs": [
        {
          "indexed": true,
          "internalType": "bytes32",
          "name": "role",
          "type": "bytes32"
        },
        {
          "indexed": true,
          "internalType": "address",
          "name": "account",
          "type": "address"
        },
        {
          "indexed": true,
          "internalType": "address",
          "name": "sender",
          "type": "address"
        }
      ],
      "name": "RoleGranted",
      "type": "event"
    },
    {
      "anonymous": false,
      "inputs": [
        {
          "indexed": true,
          "internalType": "bytes32",
          "name": "role",
          "type": "bytes32"
        },
        {
          "indexed": true,
          "internalType": "address",
          "name": "account",
          "type": "address"
        },
        {
          "indexed": true,
          "internalType": "address",
          "name": "sender",
          "type": "address"
        }
      ],
      "name": "RoleRevoked",
      "type": "event"
    },
    {
      "anonymous": false,
      "inputs": [
        {
          "indexed": false,
          "internalType": "address",
          "name": "account",
          "type": "address"
        }
      ],
      "name": "Unpaused",
      "type": "event"
    },
    {
      "anonymous": false,
      "inputs": [
        {
          "indexed": true,
          "internalType": "address",
          "name": "validator",
          "type": "address"
        }
      ],
      "name": "ValidatorAdded",
      "type": "event"
    },
    {
      "anonymous": false,
      "inputs": [
        {
          "indexed": true,
          "internalType": "address",
          "name": "validator",
          "type": "address"
        }
      ],
      "name": "ValidatorRemoved",
      "type": "event"
    },
    {
      "inputs": [],
      "name": "DEFAULT_ADMIN_ROLE",
      "outputs": [
        {
          "internalType": "bytes32",
          "name": "",
          "type": "bytes32"
        }
      ],
      "stateMutability": "view",
      "type": "function"
    },
    {
      "inputs": [],
      "name": "OPERATOR_ROLE",
      "outputs": [
        {
          "internalType": "bytes32",
          "name": "",
          "type": "bytes32"
        }
      ],
      "stateMutability": "view",
      "type": "function"
    },
    {
      "inputs": [],
      "name": "PAUSER_ROLE",
      "outputs": [
        {
          "internalType": "bytes32",
          "name": "",
          "type": "bytes32"
        }
      ],
      "stateMutability": "view",
      "type": "function"
    },
    {
      "inputs": [],
      "name": "VALIDATOR_ROLE",
      "outputs": [
        {
          "internalType": "bytes32",
          "name": "",
          "type": "bytes32"
        }
      ],
      "stateMutability": "view",
      "type": "function"
    },
    {
      "inputs": [
        {
          "internalType": "address",
          "name": "asset",
          "type": "address"
        }
      ],
      "name": "addSupportedAsset",
      "outputs": [],
      "stateMutability": "nonpayable",
      "type": "function"
    },
    {
      "inputs": [
        {
          "internalType": "address",
          "name": "validator",
          "type": "address"
        }
      ],
      "name": "addValidator",
      "outputs": [],
      "stateMutability": "nonpayable",
      "type": "function"
    },
    {
      "inputs": [],
      "name": "bridgeFeeBps",
      "outputs": [
        {
          "internalType": "uint256",
          "name": "",
          "type": "uint256"
        }
      ],
      "stateMutability": "view",
      "type": "function"
    },
    {
      "inputs": [
        {
          "internalType": "bytes32",
          "name": "",
          "type": "bytes32"
        }
      ],
      "name": "bridgeTransactions",
      "outputs": [
        {
          "internalType": "address",
          "name": "asset",
          "type": "address"
        },
        {
          "internalType": "uint256",
          "name": "amount",
          "type": "uint256"
        },
        {
          "internalType": "address",
          "name": "recipient",
          "type": "address"
        },
        {
          "internalType": "string",
          "name": "destinationChain",
          "type": "string"
        },
        {
          "internalType": "uint256",
          "name": "nonce",
          "type": "uint256"
        },
        {
          "internalType": "bool",
          "name": "processed",
          "type": "bool"
        }
      ],
      "stateMutability": "view",
      "type": "function"
    },
    {
      "inputs": [],
      "name": "getBridgeConfig",
      "outputs": [
        {
          "internalType": "uint256",
          "name": "",
          "type": "uint256"
        },
        {
          "internalType": "uint256",
          "name": "",
          "type": "uint256"
        },
        {
          "internalType": "uint256",
          "name": "",
          "type": "uint256"
        }
      ],
      "stateMutability": "view",
      "type": "function"
    },
    {
      "inputs": [
        {
          "internalType": "address",
          "name": "asset",
          "type": "address"
        }
      ],
      "name": "getLockedBalance",
      "outputs": [
        {
          "internalType": "uint256",
          "name": "",
          "type": "uint256"
        }
      ],
      "stateMutability": "view",
      "type": "function"
    },
    {
      "inputs": [
        {
          "internalType": "bytes32",
          "name": "role",
          "type": "bytes32"
        }
      ],
      "name": "getRoleAdmin",
      "outputs": [
        {
          "internalType": "bytes32",
          "name": "",
          "type": "bytes32"
        }
      ],
      "stateMutability": "view",
      "type": "function"
    },
    {
      "inputs": [
        {
          "internalType": "bytes32",
          "name": "role",
          "type": "bytes32"
        },
        {
          "internalType": "address",
          "name": "account",
          "type": "address"
        }
      ],
      "name": "grantRole",
      "outputs": [],
      "stateMutability": "nonpayable",
      "type": "function"
    },
    {
      "inputs": [
        {
          "internalType": "bytes32",
          "name": "role",
          "type": "bytes32"
        },
        {
          "internalType": "address",
          "name": "account",
          "type": "address"
        }
      ],
      "name": "hasRole",
      "outputs": [
        {
          "internalType": "bool",
          "name": "",
          "type": "bool"
        }
      ],
      "stateMutability": "view",
      "type": "function"
    },
    {
      "inputs": [
        {
          "internalType": "address",
          "name": "admin",
          "type": "address"
        },
        {
          "internalType": "uint256",
          "name": "_validatorThreshold",
          "type": "uint256"
        },
        {
          "internalType": "uint256",
          "name": "_bridgeFeeBps",
          "type": "uint256"
        }
      ],
      "name": "initialize",
      "outputs": [],
      "stateMutability": "nonpayable",
      "type": "function"
    },
    {
      "inputs": [
        {
          "internalType": "bytes32",
          "name": "transactionId",
          "type": "bytes32"
        }
      ],
      "name": "isTransactionProcessed",
      "outputs": [
        {
          "internalType": "bool",
          "name": "",
          "type": "bool"
        }
      ],
      "stateMutability": "view",
      "type": "function"
    },
    {
      "inputs": [
        {
          "internalType": "address",
          "name": "asset",
          "type": "address"
        },
        {
          "internalType": "uint256",
          "name": "amount",
          "type": "uint256"
        },
        {
          "internalType": "string",
          "name": "destinationChain",
          "type": "string"
        },
        {
          "internalType": "address",
          "name": "recipient",
          "type": "address"
        }
      ],
      "name": "lockAsset",
      "outputs": [],
      "stateMutability": "nonpayable",
      "type": "function"
    },
    {
      "inputs": [
        {
          "internalType": "address",
          "name": "",
          "type": "address"
        }
      ],
      "name": "lockedBalances",
      "outputs": [
        {
          "internalType": "uint256",
          "name": "",
          "type": "uint256"
        }
      ],
      "stateMutability": "view",
      "type": "function"
    },
    {
      "inputs": [],
      "name": "nonce",
      "outputs": [
        {
          "internalType": "uint256",
          "name": "",
          "type": "uint256"
        }
      ],
      "stateMutability": "view",
      "type": "function"
    },
    {
      "inputs": [],
      "name": "pause",
      "outputs": [],
      "stateMutability": "nonpayable",
      "type": "function"
    },
    {
      "inputs": [],
      "name": "paused",
      "outputs": [
        {
          "internalType": "bool",
          "name": "",
          "type": "bool"
        }
      ],
      "stateMutability": "view",
      "type": "function"
    },
    {
      "inputs": [
        {
          "internalType": "bytes32",
          "name": "",
          "type": "bytes32"
        }
      ],
      "name": "processedTransactions",
      "outputs": [
        {
          "internalType": "bool",
          "name": "",
          "type": "bool"
        }
      ],
      "stateMutability": "view",
      "type": "function"
    },
    {
      "inputs": [
        {
          "internalType": "address",
          "name": "asset",
          "type": "address"
        }
      ],
      "name": "removeSupportedAsset",
      "outputs": [],
      "stateMutability": "nonpayable",
      "type": "function"
    },
    {
      "inputs": [
        {
          "internalType": "address",
          "name": "validator",
          "type": "address"
        }
      ],
      "name": "removeValidator",
      "outputs": [],
      "stateMutability": "nonpayable",
      "type": "function"
    },
    {
      "inputs": [
        {
          "internalType": "bytes32",
          "name": "role",
          "type": "bytes32"
        },
        {
          "internalType": "address",
          "name": "account",
          "type": "address"
        }
      ],
      "name": "renounceRole",
      "outputs": [],
      "stateMutability": "nonpayable",
      "type": "function"
    },
    {
      "inputs": [
        {
          "internalType": "bytes32",
          "name": "role",
          "type": "bytes32"
        },
        {
          "internalType": "address",
          "name": "account",
          "type": "address"
        }
      ],
      "name": "revokeRole",
      "outputs": [],
      "stateMutability": "nonpayable",
      "type": "function"
    },
    {
      "inputs": [
        {
          "internalType": "address",
          "name": "",
          "type": "address"
        }
      ],
      "name": "supportedAssets",
      "outputs": [
        {
          "internalType": "bool",
          "name": "",
          "type": "bool"
        }
      ],
      "stateMutability": "view",
      "type": "function"
    },
    {
      "inputs": [
        {
          "internalType": "bytes4",
          "name": "interfaceId",
          "type": "bytes4"
        }
      ],
      "name": "supportsInterface",
      "outputs": [
        {
          "internalType": "bool",
          "name": "",
          "type": "bool"
        }
      ],
      "stateMutability": "view",
      "type": "function"
    },
    {
      "inputs": [
        {
          "internalType": "bytes32",
          "name": "transactionId",
          "type": "bytes32"
        },
        {
          "internalType": "address",
          "name": "asset",
          "type": "address"
        },
        {
          "internalType": "address",
          "name": "recipient",
          "type": "address"
        },
        {
          "internalType": "uint256",
          "name": "amount",
          "type": "uint256"
        },
        {
          "internalType": "bytes[]",
          "name": "signatures",
          "type": "bytes[]"
        }
      ],
      "name": "unlockAsset",
      "outputs": [],
      "stateMutability": "nonpayable",
      "type": "function"
    },
    {
      "inputs": [],
      "name": "unpause",
      "outputs": [],
      "stateMutability": "nonpayable",
      "type": "function"
    },
    {
      "inputs": [
        {
          "internalType": "uint256",
          "name": "_validatorThreshold",
          "type": "uint256"
        },
        {
          "internalType": "uint256",
          "name": "_bridgeFeeBps",
          "type": "uint256"
        }
      ],
      "name": "updateBridgeConfig",
      "outputs": [],
      "stateMutability": "nonpayable",
      "type": "function"
    },
    {
      "inputs": [
        {
          "internalType": "bytes32",
          "name": "",
          "type": "bytes32"
        }
      ],
      "name": "validatorSignatures",
      "outputs": [
        {
          "internalType": "uint256",
          "name": "",
          "type": "uint256"
        }
      ],
      "stateMutability": "view",
      "type": "function"
    },
    {
      "inputs": [],
      "name": "validatorThreshold",
      "outputs": [
        {
          "internalType": "uint256",
          "name": "",
          "type": "uint256"
        }
      ],
      "stateMutability": "view",
      "type": "function"
    }
  ],
  "bytecode": "0x608060405234801561001057600080fd5b5061001961001e565b6100dd565b600054610100900460ff161561008a5760405162461bcd60e51b815260206004820152602760248201527f496e697469616c697a61626c653a20636f6e747261637420697320696e697469604482015266616c697a696e6760c81b606482015260840160405180910390fd5b60005460ff908116146100db576000805460ff191660ff9081179091556040519081527f7f26b83ff96e1f2b6a682f133852f6798a09c465da95921460cefb38474024989060200160405180910390a15b565b611f75806100ec6000396000f3fe608060405234801561001057600080fd5b50600436106101f05760003560e01c806391d148541161010f578063c49baebe116100a2578063e779e22611610071578063e779e2261461045f578063efc646ca14610483578063f5b541a6146104a7578063fac09e87146104bc57600080fd5b8063c49baebe1461040f578063d547741f14610424578063db3c995214610437578063e63ab1e91461044a57600080fd5b8063ac2e4936116100de578063ac2e493614610396578063affed0e0146103ba578063bd81579e146103c3578063c4086893146103e657600080fd5b806391d148541461035557806399efc94614610368578063a217fddf1461037b578063a91f2d741461038357600080fd5b806340a141ff116101875780635c975abb116101565780635c975abb1461030a5780636c63f971146103155780637a1ac61e1461033a5780638456cb591461034d57600080fd5b806340a141ff146102d25780634d238c8e146102e55780634f6aa42b146102f85780634fd101d71461030157600080fd5b80632f2ff15d116101c35780632f2ff15d1461028357806336568abe146102965780633a3881e1146102a95780633f4ba83a146102ca57600080fd5b806301ffc9a7146101f55780630483a7f61461021d5780631c46bc6f1461024b578063248a9ca314610260575b600080fd5b610208610203366004611946565b6104cf565b60405190151581526020015b60405180910390f35b61023d61022b36600461198c565b60ff6020526000908152604090205481565b604051908152602001610214565b61025e61025936600461198c565b610506565b005b61023d61026e3660046119a7565b60009081526097602052604090206001015490565b61025e6102913660046119c0565b6105aa565b61025e6102a43660046119c0565b6105d4565b61023d6102b73660046119a7565b6101026020526000908152604090205481565b61025e610652565b61025e6102e036600461198c565b610675565b61025e6102f336600461198c565b6106d0565b61023d60fc5481565b61023d60fb5481565b60335460ff16610208565b6103286103233660046119a7565b61072b565b60405161021496959493929190611a3c565b61025e610348366004611a89565b6107fb565b61025e610969565b6102086103633660046119c0565b610989565b61025e610376366004611abc565b6109b4565b61023d600081565b61025e610391366004611ade565b610a8c565b6102086103a43660046119a7565b6101006020526000908152604090205460ff1681565b61023d60fd5481565b6102086103d136600461198c565b60fe6020526000908152604090205460ff1681565b61023d6103f436600461198c565b6001600160a01b0316600090815260ff602052604090205490565b61023d600080516020611ee083398151915281565b61025e6104323660046119c0565b610d70565b61025e610445366004611b87565b610d95565b61023d600080516020611f2083398151915281565b60fb5460fc5460fd5460408051938452602084019290925290820152606001610214565b6102086104913660046119a7565b6000908152610100602052604090205460ff1690565b61023d600080516020611f0083398151915281565b61025e6104ca36600461198c565b610f8a565b60006001600160e01b03198216637965db0b60e01b148061050057506301ffc9a760e01b6001600160e01b03198316145b92915050565b61051e600080516020611f0083398151915233610989565b6105615760405162461bcd60e51b815260206004820152600f60248201526e2737ba1030b71037b832b930ba37b960891b60448201526064015b60405180910390fd5b6001600160a01b038116600081815260fe6020526040808220805460ff19169055517f37803e2125c48ee96c38ddf04e826daf335b0e1603579040fd275aba6d06b6fc9190a250565b6000828152609760205260409020600101546105c58161107a565b6105cf8383611084565b505050565b6001600160a01b03811633146106445760405162461bcd60e51b815260206004820152602f60248201527f416363657373436f6e74726f6c3a2063616e206f6e6c792072656e6f756e636560448201526e103937b632b9903337b91039b2b63360891b6064820152608401610558565b61064e828261110a565b5050565b600080516020611f2083398151915261066a8161107a565b610672611171565b50565b60006106808161107a565b610698600080516020611ee08339815191528361110a565b6040516001600160a01b038316907fe1434e25d6611e0db941968fdc97811c982ac1602e951637d206f5fdda9dd8f190600090a25050565b60006106db8161107a565b6106f3600080516020611ee083398151915283611084565b6040516001600160a01b038316907fe366c1c0452ed8eec96861e9e54141ebff23c9ec89fe27b996b45f5ec388498790600090a25050565b6101016020526000908152604090208054600182015460028301546003840180546001600160a01b03948516959394909216929161076890611c25565b80601f016020809104026020016040519081016040528092919081815260200182805461079490611c25565b80156107e15780601f106107b6576101008083540402835291602001916107e1565b820191906000526020600020905b8154815290600101906020018083116107c457829003601f168201915b50505050600483015460059093015491929160ff16905086565b600054610100900460ff161580801561081b5750600054600160ff909116105b806108355750303b158015610835575060005460ff166001145b6108985760405162461bcd60e51b815260206004820152602e60248201527f496e697469616c697a61626c653a20636f6e747261637420697320616c72656160448201526d191e481a5b9a5d1a585b1a5e995960921b6064820152608401610558565b6000805460ff1916600117905580156108bb576000805461ff0019166101001790555b6108c36111c3565b6108cb6111f4565b6108d361121b565b6108de600085611084565b6108f6600080516020611f0083398151915285611084565b61090e600080516020611f2083398151915285611084565b60fb83905560fc829055600160fd558015610963576000805461ff0019169055604051600181527f7f26b83ff96e1f2b6a682f133852f6798a09c465da95921460cefb38474024989060200160405180910390a15b50505050565b600080516020611f208339815191526109818161107a565b61067261124a565b60009182526097602090815260408084206001600160a01b0393909316845291905290205460ff1690565b60006109bf8161107a565b60008311610a035760405162461bcd60e51b8152602060048201526011602482015270125b9d985b1a59081d1a1c995cda1bdb19607a1b6044820152606401610558565b6103e8821115610a445760405162461bcd60e51b815260206004820152600c60248201526b08ccaca40e8dede40d0d2ced60a31b6044820152606401610558565b60fb83905560fc82905560408051848152602081018490527f012eae2b2bfddf8f3ebe296f568367b42e105f91af7fdbb52737be089145ac4c910160405180910390a1505050565b610aa4600080516020611ee083398151915233610989565b610ae25760405162461bcd60e51b815260206004820152600f60248201526e2737ba1030903b30b634b230ba37b960891b6044820152606401610558565b610aea611287565b610af26112e0565b6000868152610100602052604090205460ff1615610b525760405162461bcd60e51b815260206004820152601d60248201527f5472616e73616374696f6e20616c72656164792070726f6365737365640000006044820152606401610558565b6001600160a01b038516600090815260fe602052604090205460ff16610bb05760405162461bcd60e51b8152602060048201526013602482015272105cdcd95d081b9bdd081cdd5c1c1bdc9d1959606a1b6044820152606401610558565b60fb54811015610c025760405162461bcd60e51b815260206004820152601760248201527f496e73756666696369656e74207369676e6174757265730000000000000000006044820152606401610558565b610c0d868383611326565b610c4e5760405162461bcd60e51b8152602060048201526012602482015271496e76616c6964207369676e61747572657360701b6044820152606401610558565b600086815261010060209081526040808320805460ff191660011790556001600160a01b038816835260ff909152902054831115610cce5760405162461bcd60e51b815260206004820152601b60248201527f496e73756666696369656e74206c6f636b65642062616c616e636500000000006044820152606401610558565b6001600160a01b038516600090815260ff602052604081208054859290610cf6908490611c75565b90915550610d1090506001600160a01b038616858561138e565b85846001600160a01b0316866001600160a01b03167f69e06ab785827add69cd6bbce6a5323c87ef69bd83e6789a6dcd632aeca530f886604051610d5691815260200190565b60405180910390a4610d68600160c955565b505050505050565b600082815260976020526040902060010154610d8b8161107a565b6105cf838361110a565b610d9d611287565b610da56112e0565b6001600160a01b038516600090815260fe602052604090205460ff16610e035760405162461bcd60e51b8152602060048201526013602482015272105cdcd95d081b9bdd081cdd5c1c1bdc9d1959606a1b6044820152606401610558565b60008411610e535760405162461bcd60e51b815260206004820152601760248201527f416d6f756e74206d75737420626520706f7369746976650000000000000000006044820152606401610558565b6001600160a01b038116610e9d5760405162461bcd60e51b8152602060048201526011602482015270125b9d985b1a59081c9958da5c1a595b9d607a1b6044820152606401610558565b600061271060fc5486610eb09190611c88565b610eba9190611c9f565b90506000610ec88287611c75565b9050610edf6001600160a01b0388163330896113f8565b6001600160a01b038716600090815260ff602052604081208054839290610f07908490611cc1565b909155505060fd805460009182610f1d83611cd4565b919050559050336001600160a01b0316886001600160a01b03167fb201200d12f122cc62c205f2ab1f471e15d9b588c749c69979d33f96a3c65e088489898987604051610f6e959493929190611ced565b60405180910390a3505050610f83600160c955565b5050505050565b610fa2600080516020611f0083398151915233610989565b610fe05760405162461bcd60e51b815260206004820152600f60248201526e2737ba1030b71037b832b930ba37b960891b6044820152606401610558565b6001600160a01b03811661102e5760405162461bcd60e51b8152602060048201526015602482015274496e76616c6964206173736574206164647265737360581b6044820152606401610558565b6001600160a01b038116600081815260fe6020526040808220805460ff19166001179055517f0e3c58ebfb2e7465fbb1c32e6b4f40c3c4f5ca77e8218a386aff8617831260d79190a250565b6106728133611430565b61108e8282610989565b61064e5760008281526097602090815260408083206001600160a01b03851684529091529020805460ff191660011790556110c63390565b6001600160a01b0316816001600160a01b0316837f2f8788117e7eff1d82e926ec794901d17c78024a50270940304540a733656f0d60405160405180910390a45050565b6111148282610989565b1561064e5760008281526097602090815260408083206001600160a01b0385168085529252808320805460ff1916905551339285917ff6391f5c32d9c69d2a47ea670b442974b53935d1edc7fd64eb21e047a839171b9190a45050565b611179611489565b6033805460ff191690557f5db9ee0a495bf2e6ff9c91a7834c1ba4fdd244a5e8aa4e537bd38aeae4b073aa335b6040516001600160a01b03909116815260200160405180910390a1565b600054610100900460ff166111ea5760405162461bcd60e51b815260040161055890611d3d565b6111f26114d2565b565b600054610100900460ff166111f25760405162461bcd60e51b815260040161055890611d3d565b600054610100900460ff166112425760405162461bcd60e51b815260040161055890611d3d565b6111f2611505565b6112526112e0565b6033805460ff191660011790557f62e78cea01bee320cd4e420270b5ea74000d11b0c9f74754ebdbfc544b05a2586111a63390565b600260c954036112d95760405162461bcd60e51b815260206004820152601f60248201527f5265656e7472616e637947756172643a207265656e7472616e742063616c6c006044820152606401610558565b600260c955565b60335460ff16156111f25760405162461bcd60e51b815260206004820152601060248201526f14185d5cd8589b194e881c185d5cd95960821b6044820152606401610558565b600080805b838110156113805784848281811061134557611345611d88565b90506020028101906113579190611d9e565b905060410361136e578161136a81611cd4565b9250505b8061137881611cd4565b91505061132b565b5060fb541115949350505050565b6040516001600160a01b0383166024820152604481018290526105cf90849063a9059cbb60e01b906064015b60408051601f198184030181529190526020810180516001600160e01b03166001600160e01b03199093169290921790915261152c565b600160c955565b6040516001600160a01b03808516602483015283166044820152606481018290526109639085906323b872dd60e01b906084016113ba565b61143a8282610989565b61064e5761144781611601565b611452836020611613565b604051602001611463929190611dec565b60408051601f198184030181529082905262461bcd60e51b825261055891600401611e61565b60335460ff166111f25760405162461bcd60e51b815260206004820152601460248201527314185d5cd8589b194e881b9bdd081c185d5cd95960621b6044820152606401610558565b600054610100900460ff166114f95760405162461bcd60e51b815260040161055890611d3d565b6033805460ff19169055565b600054610100900460ff166113f15760405162461bcd60e51b815260040161055890611d3d565b6000611581826040518060400160405280602081526020017f5361666545524332303a206c6f772d6c6576656c2063616c6c206661696c6564815250856001600160a01b03166117b69092919063ffffffff16565b90508051600014806115a25750808060200190518101906115a29190611e74565b6105cf5760405162461bcd60e51b815260206004820152602a60248201527f5361666545524332303a204552433230206f7065726174696f6e20646964206e6044820152691bdd081cdd58d8d9595960b21b6064820152608401610558565b60606105006001600160a01b03831660145b60606000611622836002611c88565b61162d906002611cc1565b67ffffffffffffffff81111561164557611645611e96565b6040519080825280601f01601f19166020018201604052801561166f576020820181803683370190505b509050600360fc1b8160008151811061168a5761168a611d88565b60200101906001600160f81b031916908160001a905350600f60fb1b816001815181106116b9576116b9611d88565b60200101906001600160f81b031916908160001a90535060006116dd846002611c88565b6116e8906001611cc1565b90505b6001811115611760576f181899199a1a9b1b9c1cb0b131b232b360811b85600f166010811061171c5761171c611d88565b1a60f81b82828151811061173257611732611d88565b60200101906001600160f81b031916908160001a90535060049490941c9361175981611eac565b90506116eb565b5083156117af5760405162461bcd60e51b815260206004820181905260248201527f537472696e67733a20686578206c656e67746820696e73756666696369656e746044820152606401610558565b9392505050565b60606117c584846000856117cd565b949350505050565b60608247101561182e5760405162461bcd60e51b815260206004820152602660248201527f416464726573733a20696e73756666696369656e742062616c616e636520666f6044820152651c8818d85b1b60d21b6064820152608401610558565b600080866001600160a01b0316858760405161184a9190611ec3565b60006040518083038185875af1925050503d8060008114611887576040519150601f19603f3d011682016040523d82523d6000602084013e61188c565b606091505b509150915061189d878383876118a8565b979650505050505050565b60608315611917578251600003611910576001600160a01b0385163b6119105760405162461bcd60e51b815260206004820152601d60248201527f416464726573733a2063616c6c20746f206e6f6e2d636f6e74726163740000006044820152606401610558565b50816117c5565b6117c5838381511561192c5781518083602001fd5b8060405162461bcd60e51b81526004016105589190611e61565b60006020828403121561195857600080fd5b81356001600160e01b0319811681146117af57600080fd5b80356001600160a01b038116811461198757600080fd5b919050565b60006020828403121561199e57600080fd5b6117af82611970565b6000602082840312156119b957600080fd5b5035919050565b600080604083850312156119d357600080fd5b823591506119e360208401611970565b90509250929050565b60005b83811015611a075781810151838201526020016119ef565b50506000910152565b60008151808452611a288160208601602086016119ec565b601f01601f19169290920160200192915050565b6001600160a01b038781168252602082018790528516604082015260c060608201819052600090611a6f90830186611a10565b60808301949094525090151560a090910152949350505050565b600080600060608486031215611a9e57600080fd5b611aa784611970565b95602085013595506040909401359392505050565b60008060408385031215611acf57600080fd5b50508035926020909101359150565b60008060008060008060a08789031215611af757600080fd5b86359550611b0760208801611970565b9450611b1560408801611970565b935060608701359250608087013567ffffffffffffffff80821115611b3957600080fd5b818901915089601f830112611b4d57600080fd5b813581811115611b5c57600080fd5b8a60208260051b8501011115611b7157600080fd5b6020830194508093505050509295509295509295565b600080600080600060808688031215611b9f57600080fd5b611ba886611970565b945060208601359350604086013567ffffffffffffffff80821115611bcc57600080fd5b818801915088601f830112611be057600080fd5b813581811115611bef57600080fd5b896020828501011115611c0157600080fd5b602083019550809450505050611c1960608701611970565b90509295509295909350565b600181811c90821680611c3957607f821691505b602082108103611c5957634e487b7160e01b600052602260045260246000fd5b50919050565b634e487b7160e01b600052601160045260246000fd5b8181038181111561050057610500611c5f565b808202811582820484141761050057610500611c5f565b600082611cbc57634e487b7160e01b600052601260045260246000fd5b500490565b8082018082111561050057610500611c5f565b600060018201611ce657611ce6611c5f565b5060010190565b85815260806020820152836080820152838560a0830137600060a08583018101919091526001600160a01b039390931660408201526060810191909152601f909201601f19169091010192915050565b6020808252602b908201527f496e697469616c697a61626c653a20636f6e7472616374206973206e6f74206960408201526a6e697469616c697a696e6760a81b606082015260800190565b634e487b7160e01b600052603260045260246000fd5b6000808335601e19843603018112611db557600080fd5b83018035915067ffffffffffffffff821115611dd057600080fd5b602001915036819003821315611de557600080fd5b9250929050565b7f416363657373436f6e74726f6c3a206163636f756e7420000000000000000000815260008351611e248160178501602088016119ec565b7001034b99036b4b9b9b4b733903937b6329607d1b6017918401918201528351611e558160288401602088016119ec565b01602801949350505050565b6020815260006117af6020830184611a10565b600060208284031215611e8657600080fd5b815180151581146117af57600080fd5b634e487b7160e01b600052604160045260246000fd5b600081611ebb57611ebb611c5f565b506000190190565b60008251611ed58184602087016119ec565b919091019291505056fe21702c8af46127c7fa207f89d0b0a8441bb32959a0ac7df790e9ab1a25c9892697667070c54ef182b0f5858b034beac1b6f3089aa2d3188bb1e8929f4fa9b92965d7a28e3265b37a6474929f336521b332c1681b933f6cb9f3376673440d862aa26469706673582212206a787a5fbb7a08ac477492bd62e339ef21c0d0bdd3195f2afd017c0522cf169664736f6c63430008130033",
  "linkReferences": {},
  "deployedLinkReferences": {}
}