{
  "_format": "hh-sol-artifact-1",
  "contractName": "DRTToken",
  "sourceName": "tokenomics/DRTToken.sol",
  "abi": [
    {
      "inputs": [],
      "stateMutability": "nonpayable",
      "type": "constructor"
    },
    {
      "inputs": [
        {
          "internalType": "address",
          "name": "",
          "type": "address"
        },
        {
          "internalType": "address",
          "name": "",
          "type": "address"
        }
      ],
      "name": "allowance",
      "outputs": [
        {
          "internalType": "uint256",
          "name": "",
          "type": "uint256"
        }
      ],
      "stateMutability": "view",
      "type": "function"
    },
    {
      "inputs": [
        {
          "internalType": "address",
          "name": "spender",
          "type": "address"
        },
        {
          "internalType": "uint256",
          "name": "amount",
          "type": "uint256"
        }
      ],
      "name": "approve",
      "outputs": [
        {
          "internalType": "bool",
          "name": "",
          "type": "bool"
        }
      ],
      "stateMutability": "nonpayable",
      "type": "function"
    },
    {
      "inputs": [
        {
          "internalType": "address",
          "name": "",
          "type": "address"
        }
      ],
      "name": "balanceOf",
      "outputs": [
        {
          "internalType": "uint256",
          "name": "",
          "type": "uint256"
        }
      ],
      "stateMutability": "view",
      "type": "function"
    },
    {
      "inputs": [
        {
          "internalType": "uint256",
          "name": "amount",
          "type": "uint256"
        }
      ],
      "name": "burn",
      "outputs": [],
      "stateMutability": "nonpayable",
      "type": "function"
    },
    {
      "inputs": [],
      "name": "decimals",
      "outputs": [
        {
          "internalType": "uint8",
          "name": "",
          "type": "uint8"
        }
      ],
      "stateMutability": "view",
      "type": "function"
    },
    {
      "inputs": [],
      "name": "emissionSchedule",
      "outputs": [
        {
          "internalType": "address",
          "name": "",
          "type": "address"
        }
      ],
      "stateMutability": "view",
      "type": "function"
    },
    {
      "inputs": [
        {
          "internalType": "address",
          "name": "to",
          "type": "address"
        },
        {
          "internalType": "uint256",
          "name": "amount",
          "type": "uint256"
        }
      ],
      "name": "mint",
      "outputs": [],
      "stateMutability": "nonpayable",
      "type": "function"
    },
    {
      "inputs": [],
      "name": "name",
      "outputs": [
        {
          "internalType": "string",
          "name": "",
          "type": "string"
        }
      ],
      "stateMutability": "view",
      "type": "function"
    },
    {
      "inputs": [
        {
          "internalType": "address",
          "name": "_emission",
          "type": "address"
        }
      ],
      "name": "setEmission",
      "outputs": [],
      "stateMutability": "nonpayable",
      "type": "function"
    },
    {
      "inputs": [],
      "name": "symbol",
      "outputs": [
        {
          "internalType": "string",
          "name": "",
          "type": "string"
        }
      ],
      "stateMutability": "view",
      "type": "function"
    },
    {
      "inputs": [],
      "name": "totalSupply",
      "outputs": [
        {
          "internalType": "uint256",
          "name": "",
          "type": "uint256"
        }
      ],
      "stateMutability": "view",
      "type": "function"
    },
    {
      "inputs": [
        {
          "internalType": "address",
          "name": "to",
          "type": "address"
        },
        {
          "internalType": "uint256",
          "name": "amount",
          "type": "uint256"
        }
      ],
      "name": "transfer",
      "outputs": [
        {
          "internalType": "bool",
          "name": "",
          "type": "bool"
        }
      ],
      "stateMutability": "nonpayable",
      "type": "function"
    },
    {
      "inputs": [
        {
          "internalType": "address",
          "name": "from",
          "type": "address"
        },
        {
          "internalType": "address",
          "name": "to",
          "type": "address"
        },
        {
          "internalType": "uint256",
          "name": "amount",
          "type": "uint256"
        }
      ],
      "name": "transferFrom",
      "outputs": [
        {
          "internalType": "bool",
          "name": "",
          "type": "bool"
        }
      ],
      "stateMutability": "nonpayable",
      "type": "function"
    }
  ],
  "bytecode": "0x60806040526040518060400160405280601581526020017f447974616c6c69782052657761726420546f6b656e0000000000000000000000815250600090816200004a91906200037d565b506040518060400160405280600381526020017f4452540000000000000000000000000000000000000000000000000000000000815250600190816200009191906200037d565b506012600260006101000a81548160ff021916908360ff160217905550348015620000bb57600080fd5b5033600460006101000a81548173ffffffffffffffffffffffffffffffffffffffff021916908373ffffffffffffffffffffffffffffffffffffffff16021790555062000464565b600081519050919050565b7f4e487b7100000000000000000000000000000000000000000000000000000000600052604160045260246000fd5b7f4e487b7100000000000000000000000000000000000000000000000000000000600052602260045260246000fd5b600060028204905060018216806200018557607f821691505b6020821081036200019b576200019a6200013d565b5b50919050565b60008190508160005260206000209050919050565b60006020601f8301049050919050565b600082821b905092915050565b600060088302620002057fffffffffffffffffffffffffffffffffffffffffffffffffffffffffffffffff82620001c6565b620002118683620001c6565b95508019841693508086168417925050509392505050565b6000819050919050565b6000819050919050565b60006200025e62000258620002528462000229565b62000233565b62000229565b9050919050565b6000819050919050565b6200027a836200023d565b62000292620002898262000265565b848454620001d3565b825550505050565b600090565b620002a96200029a565b620002b68184846200026f565b505050565b5b81811015620002de57620002d26000826200029f565b600181019050620002bc565b5050565b601f8211156200032d57620002f781620001a1565b6200030284620001b6565b8101602085101562000312578190505b6200032a6200032185620001b6565b830182620002bb565b50505b505050565b600082821c905092915050565b6000620003526000198460080262000332565b1980831691505092915050565b60006200036d83836200033f565b9150826002028217905092915050565b620003888262000103565b67ffffffffffffffff811115620003a457620003a36200010e565b5b620003b082546200016c565b620003bd828285620002e2565b600060209050601f831160018114620003f55760008415620003e0578287015190505b620003ec85826200035f565b8655506200045c565b601f1984166200040586620001a1565b60005b828110156200042f5784890151825560018201915060208501945060208101905062000408565b868310156200044f57848901516200044b601f8916826200033f565b8355505b6001600288020188555050505b505050505050565b61110f80620004746000396000f3fe608060405234801561001057600080fd5b50600436106100cf5760003560e01c806342966c681161008c57806395d89b411161006657806395d89b4114610212578063a9059cbb14610230578063dd62ed3e14610260578063ed51e69c14610290576100cf565b806342966c68146101aa57806365c7a14d146101c657806370a08231146101e2576100cf565b806306fdde03146100d4578063095ea7b3146100f257806318160ddd1461012257806323b872dd14610140578063313ce5671461017057806340c10f191461018e575b600080fd5b6100dc6102ae565b6040516100e99190610bf5565b60405180910390f35b61010c60048036038101906101079190610cb0565b61033c565b6040516101199190610d0b565b60405180910390f35b61012a6103c9565b6040516101379190610d35565b60405180910390f35b61015a60048036038101906101559190610d50565b6103cf565b6040516101679190610d0b565b60405180910390f35b61017861065c565b6040516101859190610dbf565b60405180910390f35b6101a860048036038101906101a39190610cb0565b61066f565b005b6101c460048036038101906101bf9190610dda565b610772565b005b6101e060048036038101906101db9190610e07565b610866565b005b6101fc60048036038101906101f79190610e07565b61093a565b6040516102099190610d35565b60405180910390f35b61021a610952565b6040516102279190610bf5565b60405180910390f35b61024a60048036038101906102459190610cb0565b6109e0565b6040516102579190610d0b565b60405180910390f35b61027a60048036038101906102759190610e34565b610b1a565b6040516102879190610d35565b60405180910390f35b610298610b3f565b6040516102a59190610e83565b60405180910390f35b600080546102bb90610ecd565b80601f01602080910402602001604051908101604052809291908181526020018280546102e790610ecd565b80156103345780601f1061030957610100808354040283529160200191610334565b820191906000526020600020905b81548152906001019060200180831161031757829003601f168201915b505050505081565b600081600660003373ffffffffffffffffffffffffffffffffffffffff1673ffffffffffffffffffffffffffffffffffffffff16815260200190815260200160002060008573ffffffffffffffffffffffffffffffffffffffff1673ffffffffffffffffffffffffffffffffffffffff168152602001908152602001600020819055506001905092915050565b60035481565b600081600560008673ffffffffffffffffffffffffffffffffffffffff1673ffffffffffffffffffffffffffffffffffffffff168152602001908152602001600020541015610453576040517f08c379a000000000000000000000000000000000000000000000000000000000815260040161044a90610f4a565b60405180910390fd5b81600660008673ffffffffffffffffffffffffffffffffffffffff1673ffffffffffffffffffffffffffffffffffffffff16815260200190815260200160002060003373ffffffffffffffffffffffffffffffffffffffff1673ffffffffffffffffffffffffffffffffffffffff168152602001908152602001600020541015610512576040517f08c379a000000000000000000000000000000000000000000000000000000000815260040161050990610fb6565b60405180910390fd5b81600660008673ffffffffffffffffffffffffffffffffffffffff1673ffffffffffffffffffffffffffffffffffffffff16815260200190815260200160002060003373ffffffffffffffffffffffffffffffffffffffff1673ffffffffffffffffffffffffffffffffffffffff168152602001908152602001600020600082825461059e9190611005565b9250508190555081600560008673ffffffffffffffffffffffffffffffffffffffff1673ffffffffffffffffffffffffffffffffffffffff16815260200190815260200160002060008282546105f49190611005565b9250508190555081600560008573ffffffffffffffffffffffffffffffffffffffff1673ffffffffffffffffffffffffffffffffffffffff168152602001908152602001600020600082825461064a9190611039565b92505081905550600190509392505050565b600260009054906101000a900460ff1681565b600460009054906101000a900473ffffffffffffffffffffffffffffffffffffffff1673ffffffffffffffffffffffffffffffffffffffff163373ffffffffffffffffffffffffffffffffffffffff16146106ff576040517f08c379a00000000000000000000000000000000000000000000000000000000081526004016106f6906110b9565b60405180910390fd5b80600360008282546107119190611039565b9250508190555080600560008473ffffffffffffffffffffffffffffffffffffffff1673ffffffffffffffffffffffffffffffffffffffff16815260200190815260200160002060008282546107679190611039565b925050819055505050565b80600560003373ffffffffffffffffffffffffffffffffffffffff1673ffffffffffffffffffffffffffffffffffffffff1681526020019081526020016000205410156107f4576040517f08c379a00000000000000000000000000000000000000000000000000000000081526004016107eb90610f4a565b60405180910390fd5b80600560003373ffffffffffffffffffffffffffffffffffffffff1673ffffffffffffffffffffffffffffffffffffffff16815260200190815260200160002060008282546108439190611005565b92505081905550806003600082825461085c9190611005565b9250508190555050565b600460009054906101000a900473ffffffffffffffffffffffffffffffffffffffff1673ffffffffffffffffffffffffffffffffffffffff163373ffffffffffffffffffffffffffffffffffffffff16146108f6576040517f08c379a00000000000000000000000000000000000000000000000000000000081526004016108ed906110b9565b60405180910390fd5b80600460006101000a81548173ffffffffffffffffffffffffffffffffffffffff021916908373ffffffffffffffffffffffffffffffffffffffff16021790555050565b60056020528060005260406000206000915090505481565b6001805461095f90610ecd565b80601f016020809104026020016040519081016040528092919081815260200182805461098b90610ecd565b80156109d85780601f106109ad576101008083540402835291602001916109d8565b820191906000526020600020905b8154815290600101906020018083116109bb57829003601f168201915b505050505081565b600081600560003373ffffffffffffffffffffffffffffffffffffffff1673ffffffffffffffffffffffffffffffffffffffff168152602001908152602001600020541015610a64576040517f08c379a0000000000000000000000000000000000000000000000000000000008152600401610a5b90610f4a565b60405180910390fd5b81600560003373ffffffffffffffffffffffffffffffffffffffff1673ffffffffffffffffffffffffffffffffffffffff1681526020019081526020016000206000828254610ab39190611005565b9250508190555081600560008573ffffffffffffffffffffffffffffffffffffffff1673ffffffffffffffffffffffffffffffffffffffff1681526020019081526020016000206000828254610b099190611039565b925050819055506001905092915050565b6006602052816000526040600020602052806000526040600020600091509150505481565b600460009054906101000a900473ffffffffffffffffffffffffffffffffffffffff1681565b600081519050919050565b600082825260208201905092915050565b60005b83811015610b9f578082015181840152602081019050610b84565b60008484015250505050565b6000601f19601f8301169050919050565b6000610bc782610b65565b610bd18185610b70565b9350610be1818560208601610b81565b610bea81610bab565b840191505092915050565b60006020820190508181036000830152610c0f8184610bbc565b905092915050565b600080fd5b600073ffffffffffffffffffffffffffffffffffffffff82169050919050565b6000610c4782610c1c565b9050919050565b610c5781610c3c565b8114610c6257600080fd5b50565b600081359050610c7481610c4e565b92915050565b6000819050919050565b610c8d81610c7a565b8114610c9857600080fd5b50565b600081359050610caa81610c84565b92915050565b60008060408385031215610cc757610cc6610c17565b5b6000610cd585828601610c65565b9250506020610ce685828601610c9b565b9150509250929050565b60008115159050919050565b610d0581610cf0565b82525050565b6000602082019050610d206000830184610cfc565b92915050565b610d2f81610c7a565b82525050565b6000602082019050610d4a6000830184610d26565b92915050565b600080600060608486031215610d6957610d68610c17565b5b6000610d7786828701610c65565b9350506020610d8886828701610c65565b9250506040610d9986828701610c9b565b9150509250925092565b600060ff82169050919050565b610db981610da3565b82525050565b6000602082019050610dd46000830184610db0565b92915050565b600060208284031215610df057610def610c17565b5b6000610dfe84828501610c9b565b91505092915050565b600060208284031215610e1d57610e1c610c17565b5b6000610e2b84828501610c65565b91505092915050565b60008060408385031215610e4b57610e4a610c17565b5b6000610e5985828601610c65565b9250506020610e6a85828601610c65565b9150509250929050565b610e7d81610c3c565b82525050565b6000602082019050610e986000830184610e74565b92915050565b7f4e487b7100000000000000000000000000000000000000000000000000000000600052602260045260246000fd5b60006002820490506001821680610ee557607f821691505b602082108103610ef857610ef7610e9e565b5b50919050565b7f62616c616e636520746f6f206c6f770000000000000000000000000000000000600082015250565b6000610f34600f83610b70565b9150610f3f82610efe565b602082019050919050565b60006020820190508181036000830152610f6381610f27565b9050919050565b7f616c6c6f77616e636520746f6f206c6f77000000000000000000000000000000600082015250565b6000610fa0601183610b70565b9150610fab82610f6a565b602082019050919050565b60006020820190508181036000830152610fcf81610f93565b9050919050565b7f4e487b7100000000000000000000000000000000000000000000000000000000600052601160045260246000fd5b600061101082610c7a565b915061101b83610c7a565b925082820390508181111561103357611032610fd6565b5b92915050565b600061104482610c7a565b915061104f83610c7a565b925082820190508082111561106757611066610fd6565b5b92915050565b7f6e6f7420656d697373696f6e0000000000000000000000000000000000000000600082015250565b60006110a3600c83610b70565b91506110ae8261106d565b602082019050919050565b600060208201905081810360008301526110d281611096565b905091905056fea2646970667358221220eeac6b9a4ec50328645aac2b4c6e78a8c1a4811319f97c734c83e266c18d0c9164736f6c63430008140033",
  "linkReferences": {},
  "deployedLinkReferences": {}
}