{
  "_format": "hh-sol-artifact-1",
  "contractName": "GovernanceModule",
  "sourceName": "tokenomics/GovernanceModule/GovernanceModule.sol",
  "abi": [
    {
      "inputs": [
        {
          "internalType": "address",
          "name": "_token",
          "type": "address"
        }
      ],
      "stateMutability": "nonpayable",
      "type": "constructor"
    },
    {
      "inputs": [
        {
          "internalType": "uint256",
          "name": "",
          "type": "uint256"
        }
      ],
      "name": "proposals",
      "outputs": [
        {
          "internalType": "string",
          "name": "description",
          "type": "string"
        },
        {
          "internalType": "uint256",
          "name": "votes",
          "type": "uint256"
        },
        {
          "internalType": "bool",
          "name": "executed",
          "type": "bool"
        }
      ],
      "stateMutability": "view",
      "type": "function"
    },
    {
      "inputs": [
        {
          "internalType": "string",
          "name": "desc",
          "type": "string"
        }
      ],
      "name": "propose",
      "outputs": [],
      "stateMutability": "nonpayable",
      "type": "function"
    },
    {
      "inputs": [],
      "name": "token",
      "outputs": [
        {
          "internalType": "contract DGTToken",
          "name": "",
          "type": "address"
        }
      ],
      "stateMutability": "view",
      "type": "function"
    },
    {
      "inputs": [
        {
          "internalType": "uint256",
          "name": "id",
          "type": "uint256"
        },
        {
          "internalType": "uint256",
          "name": "amount",
          "type": "uint256"
        }
      ],
      "name": "vote",
      "outputs": [],
      "stateMutability": "nonpayable",
      "type": "function"
    }
  ],
  "bytecode": "0x60a060405234801561001057600080fd5b50604051610c61380380610c61833981810160405281019061003291906100cf565b8073ffffffffffffffffffffffffffffffffffffffff1660808173ffffffffffffffffffffffffffffffffffffffff1681525050506100fc565b600080fd5b600073ffffffffffffffffffffffffffffffffffffffff82169050919050565b600061009c82610071565b9050919050565b6100ac81610091565b81146100b757600080fd5b50565b6000815190506100c9816100a3565b92915050565b6000602082840312156100e5576100e461006c565b5b60006100f3848285016100ba565b91505092915050565b608051610b4361011e6000396000818161027e01526103720152610b436000f3fe608060405234801561001057600080fd5b506004361061004c5760003560e01c8063013cf08b14610051578063aa98df3914610083578063b384abef1461009f578063fc0c546a146100bb575b600080fd5b61006b600480360381019061006691906103d4565b6100d9565b60405161007a939291906104bb565b60405180910390f35b61009d6004803603810190610098919061055e565b6101a8565b005b6100b960048036038101906100b491906105ab565b61027c565b005b6100c3610370565b6040516100d0919061066a565b60405180910390f35b600081815481106100e957600080fd5b906000526020600020906003020160009150905080600001805461010c906106b4565b80601f0160208091040260200160405190810160405280929190818152602001828054610138906106b4565b80156101855780601f1061015a57610100808354040283529160200191610185565b820191906000526020600020905b81548152906001019060200180831161016857829003601f168201915b5050505050908060010154908060020160009054906101000a900460ff16905083565b6000604051806060016040528084848080601f016020809104026020016040519081016040528093929190818152602001838380828437600081840152601f19601f82011690508083019250505050505050815260200160008152602001600015158152509080600181540180825580915050600190039060005260206000209060030201600090919091909150600082015181600001908161024b91906108b6565b506020820151816001015560408201518160020160006101000a81548160ff02191690831515021790555050505050565b7f000000000000000000000000000000000000000000000000000000000000000073ffffffffffffffffffffffffffffffffffffffff166323b872dd3330846040518463ffffffff1660e01b81526004016102d9939291906109a9565b6020604051808303816000875af11580156102f8573d6000803e3d6000fd5b505050506040513d601f19601f8201168201806040525081019061031c9190610a0c565b61032557600080fd5b80816103319190610a68565b6000838154811061034557610344610aaa565b5b906000526020600020906003020160010160008282546103659190610ad9565b925050819055505050565b7f000000000000000000000000000000000000000000000000000000000000000081565b600080fd5b600080fd5b6000819050919050565b6103b18161039e565b81146103bc57600080fd5b50565b6000813590506103ce816103a8565b92915050565b6000602082840312156103ea576103e9610394565b5b60006103f8848285016103bf565b91505092915050565b600081519050919050565b600082825260208201905092915050565b60005b8381101561043b578082015181840152602081019050610420565b60008484015250505050565b6000601f19601f8301169050919050565b600061046382610401565b61046d818561040c565b935061047d81856020860161041d565b61048681610447565b840191505092915050565b61049a8161039e565b82525050565b60008115159050919050565b6104b5816104a0565b82525050565b600060608201905081810360008301526104d58186610458565b90506104e46020830185610491565b6104f160408301846104ac565b949350505050565b600080fd5b600080fd5b600080fd5b60008083601f84011261051e5761051d6104f9565b5b8235905067ffffffffffffffff81111561053b5761053a6104fe565b5b60208301915083600182028301111561055757610556610503565b5b9250929050565b6000806020838503121561057557610574610394565b5b600083013567ffffffffffffffff81111561059357610592610399565b5b61059f85828601610508565b92509250509250929050565b600080604083850312156105c2576105c1610394565b5b60006105d0858286016103bf565b92505060206105e1858286016103bf565b9150509250929050565b600073ffffffffffffffffffffffffffffffffffffffff82169050919050565b6000819050919050565b600061063061062b610626846105eb565b61060b565b6105eb565b9050919050565b600061064282610615565b9050919050565b600061065482610637565b9050919050565b61066481610649565b82525050565b600060208201905061067f600083018461065b565b92915050565b7f4e487b7100000000000000000000000000000000000000000000000000000000600052602260045260246000fd5b600060028204905060018216806106cc57607f821691505b6020821081036106df576106de610685565b5b50919050565b7f4e487b7100000000000000000000000000000000000000000000000000000000600052604160045260246000fd5b60008190508160005260206000209050919050565b60006020601f8301049050919050565b600082821b905092915050565b6000600883026107767fffffffffffffffffffffffffffffffffffffffffffffffffffffffffffffffff82610739565b6107808683610739565b95508019841693508086168417925050509392505050565b60006107b36107ae6107a98461039e565b61060b565b61039e565b9050919050565b6000819050919050565b6107cd83610798565b6107e16107d9826107ba565b848454610746565b825550505050565b600090565b6107f66107e9565b6108018184846107c4565b505050565b5b818110156108255761081a6000826107ee565b600181019050610807565b5050565b601f82111561086a5761083b81610714565b61084484610729565b81016020851015610853578190505b61086761085f85610729565b830182610806565b50505b505050565b600082821c905092915050565b600061088d6000198460080261086f565b1980831691505092915050565b60006108a6838361087c565b9150826002028217905092915050565b6108bf82610401565b67ffffffffffffffff8111156108d8576108d76106e5565b5b6108e282546106b4565b6108ed828285610829565b600060209050601f831160018114610920576000841561090e578287015190505b610918858261089a565b865550610980565b601f19841661092e86610714565b60005b8281101561095657848901518255600182019150602085019450602081019050610931565b86831015610973578489015161096f601f89168261087c565b8355505b6001600288020188555050505b505050505050565b6000610993826105eb565b9050919050565b6109a381610988565b82525050565b60006060820190506109be600083018661099a565b6109cb602083018561099a565b6109d86040830184610491565b949350505050565b6109e9816104a0565b81146109f457600080fd5b50565b600081519050610a06816109e0565b92915050565b600060208284031215610a2257610a21610394565b5b6000610a30848285016109f7565b91505092915050565b7f4e487b7100000000000000000000000000000000000000000000000000000000600052601160045260246000fd5b6000610a738261039e565b9150610a7e8361039e565b9250828202610a8c8161039e565b91508282048414831517610aa357610aa2610a39565b5b5092915050565b7f4e487b7100000000000000000000000000000000000000000000000000000000600052603260045260246000fd5b6000610ae48261039e565b9150610aef8361039e565b9250828201905080821115610b0757610b06610a39565b5b9291505056fea264697066735822122006eb70f1faa86c1722fc20648782eda67adfac3ff14e686b819ba44fd276a48d64736f6c63430008140033",
  "linkReferences": {},
  "deployedLinkReferences": {}
}