{
  "_format": "hh-sol-artifact-1",
  "contractName": "EmissionSchedule",
  "sourceName": "tokenomics/EmissionSchedule.sol",
  "abi": [
    {
      "inputs": [
        {
          "internalType": "address",
          "name": "tokenAddress",
          "type": "address"
        },
        {
          "internalType": "uint256",
          "name": "_rate",
          "type": "uint256"
        }
      ],
      "stateMutability": "nonpayable",
      "type": "constructor"
    },
    {
      "inputs": [
        {
          "internalType": "address",
          "name": "to",
          "type": "address"
        }
      ],
      "name": "emitTokens",
      "outputs": [],
      "stateMutability": "nonpayable",
      "type": "function"
    },
    {
      "inputs": [],
      "name": "rate",
      "outputs": [
        {
          "internalType": "uint256",
          "name": "",
          "type": "uint256"
        }
      ],
      "stateMutability": "view",
      "type": "function"
    },
    {
      "inputs": [],
      "name": "token",
      "outputs": [
        {
          "internalType": "contract DRTToken",
          "name": "",
          "type": "address"
        }
      ],
      "stateMutability": "view",
      "type": "function"
    }
  ],
  "bytecode": "0x60a060405234801561001057600080fd5b506040516104743803806104748339818101604052810190610032919061010d565b8173ffffffffffffffffffffffffffffffffffffffff1660808173ffffffffffffffffffffffffffffffffffffffff168152505080600081905550505061014d565b600080fd5b600073ffffffffffffffffffffffffffffffffffffffff82169050919050565b60006100a482610079565b9050919050565b6100b481610099565b81146100bf57600080fd5b50565b6000815190506100d1816100ab565b92915050565b6000819050919050565b6100ea816100d7565b81146100f557600080fd5b50565b600081519050610107816100e1565b92915050565b6000806040838503121561012457610123610074565b5b6000610132858286016100c2565b9250506020610143858286016100f8565b9150509250929050565b60805161030661016e6000396000818160a6015261013801526103066000f3fe608060405234801561001057600080fd5b50600436106100415760003560e01c80632c4e722e14610046578063b9b20d1b14610064578063fc0c546a14610080575b600080fd5b61004e61009e565b60405161005b9190610173565b60405180910390f35b61007e600480360381019061007991906101f1565b6100a4565b005b610088610136565b604051610095919061027d565b60405180910390f35b60005481565b7f000000000000000000000000000000000000000000000000000000000000000073ffffffffffffffffffffffffffffffffffffffff166340c10f19826000546040518363ffffffff1660e01b81526004016101019291906102a7565b600060405180830381600087803b15801561011b57600080fd5b505af115801561012f573d6000803e3d6000fd5b5050505050565b7f000000000000000000000000000000000000000000000000000000000000000081565b6000819050919050565b61016d8161015a565b82525050565b60006020820190506101886000830184610164565b92915050565b600080fd5b600073ffffffffffffffffffffffffffffffffffffffff82169050919050565b60006101be82610193565b9050919050565b6101ce816101b3565b81146101d957600080fd5b50565b6000813590506101eb816101c5565b92915050565b6000602082840312156102075761020661018e565b5b6000610215848285016101dc565b91505092915050565b6000819050919050565b600061024361023e61023984610193565b61021e565b610193565b9050919050565b600061025582610228565b9050919050565b60006102678261024a565b9050919050565b6102778161025c565b82525050565b6000602082019050610292600083018461026e565b92915050565b6102a1816101b3565b82525050565b60006040820190506102bc6000830185610298565b6102c96020830184610164565b939250505056fea2646970667358221220498ebed1d47a9467e5ccf53d17c57eef02905e261a3bb19a11ee49898173170164736f6c63430008140033",
  "linkReferences": {},
  "deployedLinkReferences": {}
}