{
  "_format": "hh-sol-artifact-1",
  "contractName": "StakingModule",
  "sourceName": "tokenomics/StakingModule/StakingModule.sol",
  "abi": [
    {
      "inputs": [
        {
          "internalType": "address",
          "name": "_dgt",
          "type": "address"
        },
        {
          "internalType": "address",
          "name": "_drt",
          "type": "address"
        }
      ],
      "stateMutability": "nonpayable",
      "type": "constructor"
    },
    {
      "inputs": [],
      "name": "claim",
      "outputs": [],
      "stateMutability": "nonpayable",
      "type": "function"
    },
    {
      "inputs": [],
      "name": "dgt",
      "outputs": [
        {
          "internalType": "contract DGTToken",
          "name": "",
          "type": "address"
        }
      ],
      "stateMutability": "view",
      "type": "function"
    },
    {
      "inputs": [
        {
          "internalType": "uint256",
          "name": "amount",
          "type": "uint256"
        }
      ],
      "name": "distribute",
      "outputs": [],
      "stateMutability": "nonpayable",
      "type": "function"
    },
    {
      "inputs": [],
      "name": "drt",
      "outputs": [
        {
          "internalType": "contract DRTToken",
          "name": "",
          "type": "address"
        }
      ],
      "stateMutability": "view",
      "type": "function"
    },
    {
      "inputs": [],
      "name": "rewardPerToken",
      "outputs": [
        {
          "internalType": "uint256",
          "name": "",
          "type": "uint256"
        }
      ],
      "stateMutability": "view",
      "type": "function"
    },
    {
      "inputs": [
        {
          "internalType": "uint256",
          "name": "amount",
          "type": "uint256"
        }
      ],
      "name": "stake",
      "outputs": [],
      "stateMutability": "nonpayable",
      "type": "function"
    },
    {
      "inputs": [
        {
          "internalType": "address",
          "name": "",
          "type": "address"
        }
      ],
      "name": "stakes",
      "outputs": [
        {
          "internalType": "uint256",
          "name": "amount",
          "type": "uint256"
        },
        {
          "internalType": "uint256",
          "name": "rewardDebt",
          "type": "uint256"
        }
      ],
      "stateMutability": "view",
      "type": "function"
    },
    {
      "inputs": [
        {
          "internalType": "uint256",
          "name": "amount",
          "type": "uint256"
        }
      ],
      "name": "withdraw",
      "outputs": [],
      "stateMutability": "nonpayable",
      "type": "function"
    }
  ],
  "bytecode": "0x60c060405234801561001057600080fd5b50604051610e62380380610e6283398181016040528101906100329190610104565b8173ffffffffffffffffffffffffffffffffffffffff1660808173ffffffffffffffffffffffffffffffffffffffff16815250508073ffffffffffffffffffffffffffffffffffffffff1660a08173ffffffffffffffffffffffffffffffffffffffff16815250505050610144565b600080fd5b600073ffffffffffffffffffffffffffffffffffffffff82169050919050565b60006100d1826100a6565b9050919050565b6100e1816100c6565b81146100ec57600080fd5b50565b6000815190506100fe816100d8565b92915050565b6000806040838503121561011b5761011a6100a1565b5b6000610129858286016100ef565b925050602061013a858286016100ef565b9150509250929050565b60805160a051610cd661018c6000396000818161043d015281816104df015261050301526000818161019c015281816102a40152818161059001526106500152610cd66000f3fe608060405234801561001057600080fd5b50600436106100885760003560e01c80638260b50c1161005b5780638260b50c1461010257806391c05b0b14610120578063a694fc3a1461013c578063cd3daf9d1461015857610088565b806316934fc41461008d5780632af8afca146100be5780632e1a7d4d146100dc5780634e71d92d146100f8575b600080fd5b6100a760048036038101906100a29190610820565b610176565b6040516100b5929190610866565b60405180910390f35b6100c661019a565b6040516100d391906108ee565b60405180910390f35b6100f660048036038101906100f19190610935565b6101be565b005b610100610344565b005b61010a6104dd565b6040516101179190610983565b60405180910390f35b61013a60048036038101906101359190610935565b610501565b005b61015660048036038101906101519190610935565b61064e565b005b6101606107b7565b60405161016d919061099e565b60405180910390f35b60006020528060005260406000206000915090508060000154908060010154905082565b7f000000000000000000000000000000000000000000000000000000000000000081565b806000803373ffffffffffffffffffffffffffffffffffffffff1673ffffffffffffffffffffffffffffffffffffffff168152602001908152602001600020600001541015610242576040517f08c379a000000000000000000000000000000000000000000000000000000000815260040161023990610a16565b60405180910390fd5b61024a610344565b806000803373ffffffffffffffffffffffffffffffffffffffff1673ffffffffffffffffffffffffffffffffffffffff168152602001908152602001600020600001600082825461029b9190610a65565b925050819055507f000000000000000000000000000000000000000000000000000000000000000073ffffffffffffffffffffffffffffffffffffffff1663a9059cbb33836040518363ffffffff1660e01b81526004016102fd929190610aa8565b6020604051808303816000875af115801561031c573d6000803e3d6000fd5b505050506040513d601f19601f820116820180604052508101906103409190610b09565b5050565b60008060003373ffffffffffffffffffffffffffffffffffffffff1673ffffffffffffffffffffffffffffffffffffffff168152602001908152602001600020600101546001546000803373ffffffffffffffffffffffffffffffffffffffff1673ffffffffffffffffffffffffffffffffffffffff168152602001908152602001600020600001546103d79190610b36565b6103e19190610a65565b9050806000803373ffffffffffffffffffffffffffffffffffffffff1673ffffffffffffffffffffffffffffffffffffffff16815260200190815260200160002060010160008282546104349190610b78565b925050819055507f000000000000000000000000000000000000000000000000000000000000000073ffffffffffffffffffffffffffffffffffffffff1663a9059cbb33836040518363ffffffff1660e01b8152600401610496929190610aa8565b6020604051808303816000875af11580156104b5573d6000803e3d6000fd5b505050506040513d601f19601f820116820180604052508101906104d99190610b09565b5050565b7f000000000000000000000000000000000000000000000000000000000000000081565b7f000000000000000000000000000000000000000000000000000000000000000073ffffffffffffffffffffffffffffffffffffffff166340c10f1930836040518363ffffffff1660e01b815260040161055c929190610aa8565b600060405180830381600087803b15801561057657600080fd5b505af115801561058a573d6000803e3d6000fd5b505050507f000000000000000000000000000000000000000000000000000000000000000073ffffffffffffffffffffffffffffffffffffffff166370a08231306040518263ffffffff1660e01b81526004016105e79190610bac565b602060405180830381865afa158015610604573d6000803e3d6000fd5b505050506040513d601f19601f820116820180604052508101906106289190610bdc565b816106339190610c38565b600160008282546106449190610b78565b9250508190555050565b7f000000000000000000000000000000000000000000000000000000000000000073ffffffffffffffffffffffffffffffffffffffff166323b872dd3330846040518463ffffffff1660e01b81526004016106ab93929190610c69565b6020604051808303816000875af11580156106ca573d6000803e3d6000fd5b505050506040513d601f19601f820116820180604052508101906106ee9190610b09565b6106f757600080fd5b806000803373ffffffffffffffffffffffffffffffffffffffff1673ffffffffffffffffffffffffffffffffffffffff16815260200190815260200160002060000160008282546107489190610b78565b925050819055506001548161075d9190610b36565b6000803373ffffffffffffffffffffffffffffffffffffffff1673ffffffffffffffffffffffffffffffffffffffff16815260200190815260200160002060010160008282546107ad9190610b78565b9250508190555050565b60015481565b600080fd5b600073ffffffffffffffffffffffffffffffffffffffff82169050919050565b60006107ed826107c2565b9050919050565b6107fd816107e2565b811461080857600080fd5b50565b60008135905061081a816107f4565b92915050565b600060208284031215610836576108356107bd565b5b60006108448482850161080b565b91505092915050565b6000819050919050565b6108608161084d565b82525050565b600060408201905061087b6000830185610857565b6108886020830184610857565b9392505050565b6000819050919050565b60006108b46108af6108aa846107c2565b61088f565b6107c2565b9050919050565b60006108c682610899565b9050919050565b60006108d8826108bb565b9050919050565b6108e8816108cd565b82525050565b600060208201905061090360008301846108df565b92915050565b6109128161084d565b811461091d57600080fd5b50565b60008135905061092f81610909565b92915050565b60006020828403121561094b5761094a6107bd565b5b600061095984828501610920565b91505092915050565b600061096d826108bb565b9050919050565b61097d81610962565b82525050565b60006020820190506109986000830184610974565b92915050565b60006020820190506109b36000830184610857565b92915050565b600082825260208201905092915050565b7f746f6f206d756368000000000000000000000000000000000000000000000000600082015250565b6000610a006008836109b9565b9150610a0b826109ca565b602082019050919050565b60006020820190508181036000830152610a2f816109f3565b9050919050565b7f4e487b7100000000000000000000000000000000000000000000000000000000600052601160045260246000fd5b6000610a708261084d565b9150610a7b8361084d565b9250828203905081811115610a9357610a92610a36565b5b92915050565b610aa2816107e2565b82525050565b6000604082019050610abd6000830185610a99565b610aca6020830184610857565b9392505050565b60008115159050919050565b610ae681610ad1565b8114610af157600080fd5b50565b600081519050610b0381610add565b92915050565b600060208284031215610b1f57610b1e6107bd565b5b6000610b2d84828501610af4565b91505092915050565b6000610b418261084d565b9150610b4c8361084d565b9250828202610b5a8161084d565b91508282048414831517610b7157610b70610a36565b5b5092915050565b6000610b838261084d565b9150610b8e8361084d565b9250828201905080821115610ba657610ba5610a36565b5b92915050565b6000602082019050610bc16000830184610a99565b92915050565b600081519050610bd681610909565b92915050565b600060208284031215610bf257610bf16107bd565b5b6000610c0084828501610bc7565b91505092915050565b7f4e487b7100000000000000000000000000000000000000000000000000000000600052601260045260246000fd5b6000610c438261084d565b9150610c4e8361084d565b925082610c5e57610c5d610c09565b5b828204905092915050565b6000606082019050610c7e6000830186610a99565b610c8b6020830185610a99565b610c986040830184610857565b94935050505056fea264697066735822122070d4eb705afa2fc90b1ec02a1086d3f85dab3eb05b8fde8171145f536f3e2b1264736f6c63430008140033",
  "linkReferences": {},
  "deployedLinkReferences": {}
}