{
  "_format": "hh-sol-artifact-1",
  "contractName": "WrappedTokenFactory",
  "sourceName": "contracts/WrappedTokenFactory.sol",
  "abi": [
    {
      "inputs": [
        {
          "internalType": "address",
          "name": "_bridge",
          "type": "address"
        }
      ],
      "stateMutability": "nonpayable",
      "type": "constructor"
    },
    {
      "anonymous": false,
      "inputs": [
        {
          "indexed": true,
          "internalType": "address",
          "name": "oldBridge",
          "type": "address"
        },
        {
          "indexed": true,
          "internalType": "address",
          "name": "newBridge",
          "type": "address"
        }
      ],
      "name": "BridgeUpdated",
      "type": "event"
    },
    {
      "anonymous": false,
      "inputs": [
        {
          "indexed": true,
          "internalType": "address",
          "name": "previousOwner",
          "type": "address"
        },
        {
          "indexed": true,
          "internalType": "address",
          "name": "newOwner",
          "type": "address"
        }
      ],
      "name": "OwnershipTransferred",
      "type": "event"
    },
    {
      "anonymous": false,
      "inputs": [
        {
          "indexed": true,
          "internalType": "string",
          "name": "assetId",
          "type": "string"
        },
        {
          "indexed": true,
          "internalType": "address",
          "name": "tokenAddress",
          "type": "address"
        },
        {
          "indexed": false,
          "internalType": "string",
          "name": "name",
          "type": "string"
        },
        {
          "indexed": false,
          "internalType": "string",
          "name": "symbol",
          "type": "string"
        },
        {
          "indexed": false,
          "internalType": "string",
          "name": "originalChain",
          "type": "string"
        },
        {
          "indexed": false,
          "internalType": "address",
          "name": "originalAsset",
          "type": "address"
        }
      ],
      "name": "WrappedTokenCreated",
      "type": "event"
    },
    {
      "inputs": [
        {
          "internalType": "uint256",
          "name": "",
          "type": "uint256"
        }
      ],
      "name": "allWrappedTokens",
      "outputs": [
        {
          "internalType": "address",
          "name": "",
          "type": "address"
        }
      ],
      "stateMutability": "view",
      "type": "function"
    },
    {
      "inputs": [],
      "name": "bridge",
      "outputs": [
        {
          "internalType": "address",
          "name": "",
          "type": "address"
        }
      ],
      "stateMutability": "view",
      "type": "function"
    },
    {
      "inputs": [
        {
          "internalType": "string",
          "name": "assetId",
          "type": "string"
        },
        {
          "internalType": "string",
          "name": "name",
          "type": "string"
        },
        {
          "internalType": "string",
          "name": "symbol",
          "type": "string"
        },
        {
          "internalType": "string",
          "name": "originalChain",
          "type": "string"
        },
        {
          "internalType": "address",
          "name": "originalAsset",
          "type": "address"
        }
      ],
      "name": "createWrappedToken",
      "outputs": [
        {
          "internalType": "address",
          "name": "",
          "type": "address"
        }
      ],
      "stateMutability": "nonpayable",
      "type": "function"
    },
    {
      "inputs": [],
      "name": "getAllWrappedTokens",
      "outputs": [
        {
          "internalType": "address[]",
          "name": "",
          "type": "address[]"
        }
      ],
      "stateMutability": "view",
      "type": "function"
    },
    {
      "inputs": [
        {
          "internalType": "string",
          "name": "assetId",
          "type": "string"
        }
      ],
      "name": "getWrappedToken",
      "outputs": [
        {
          "internalType": "address",
          "name": "",
          "type": "address"
        }
      ],
      "stateMutability": "view",
      "type": "function"
    },
    {
      "inputs": [],
      "name": "getWrappedTokenCount",
      "outputs": [
        {
          "internalType": "uint256",
          "name": "",
          "type": "uint256"
        }
      ],
      "stateMutability": "view",
      "type": "function"
    },
    {
      "inputs": [],
      "name": "owner",
      "outputs": [
        {
          "internalType": "address",
          "name": "",
          "type": "address"
        }
      ],
      "stateMutability": "view",
      "type": "function"
    },
    {
      "inputs": [],
      "name": "renounceOwnership",
      "outputs": [],
      "stateMutability": "nonpayable",
      "type": "function"
    },
    {
      "inputs": [
        {
          "internalType": "address",
          "name": "newOwner",
          "type": "address"
        }
      ],
      "name": "transferOwnership",
      "outputs": [],
      "stateMutability": "nonpayable",
      "type": "function"
    },
    {
      "inputs": [
        {
          "internalType": "address",
          "name": "newBridge",
          "type": "address"
        }
      ],
      "name": "updateBridge",
      "outputs": [],
      "stateMutability": "nonpayable",
      "type": "function"
    },
    {
      "inputs": [
        {
          "internalType": "string",
          "name": "",
          "type": "string"
        }
      ],
      "name": "wrappedTokens",
      "outputs": [
        {
          "internalType": "address",
          "name": "",
          "type": "address"
        }
      ],
      "stateMutability": "view",
      "type": "function"
    }
  ],
  "bytecode": "0x608060405234801561001057600080fd5b50604051612c48380380612c4883398101604081905261002f916100ad565b6100383361005d565b600380546001600160a01b0319166001600160a01b03929092169190911790556100dd565b600080546001600160a01b038381166001600160a01b0319831681178455604051919092169283917f8be0079c531659141344cd1fd0a4f28419497f9722a3daafe3b4186f6b6457e09190a35050565b6000602082840312156100bf57600080fd5b81516001600160a01b03811681146100d657600080fd5b9392505050565b612b5c806100ec6000396000f3fe60806040523480156200001157600080fd5b5060043610620000b75760003560e01c80638ccd9524116200007a5780638ccd952414620001435780638da5cb5b1462000155578063c5b2345f1462000167578063cb3f217d146200017e578063e78cea9214620001b5578063f2fde38b14620001c957600080fd5b8063129326a614620000bc5780636500d43f14620000f057806367bab12814620001095780636eb382121462000120578063715018a61462000139575b600080fd5b620000d3620000cd36600462000871565b620001e0565b6040516001600160a01b0390911681526020015b60405180910390f35b620000fa6200048e565b604051620000e7919062000954565b620000d36200011a366004620009a3565b620004f2565b6200013762000131366004620009bd565b6200051d565b005b6200013762000680565b600254604051908152602001620000e7565b6000546001600160a01b0316620000d3565b620000d362000178366004620009e2565b62000698565b620000d36200018f36600462000a3e565b80516020818301810180516001825292820191909301209152546001600160a01b031681565b600354620000d3906001600160a01b031681565b62000137620001da366004620009bd565b620006cf565b6000620001ec6200074e565b60006001600160a01b031660018b8b6040516200020b92919062000af9565b908152604051908190036020019020546001600160a01b0316146200026e5760405162461bcd60e51b8152602060048201526014602482015273546f6b656e20616c72656164792065786973747360601b60448201526064015b60405180910390fd5b88620002b05760405162461bcd60e51b815260206004820152601060248201526f125b9d985b1a5908185cdcd95d08125160821b604482015260640162000265565b86620002ee5760405162461bcd60e51b815260206004820152600c60248201526b496e76616c6964206e616d6560a01b604482015260640162000265565b846200032e5760405162461bcd60e51b815260206004820152600e60248201526d125b9d985b1a59081cde5b589bdb60921b604482015260640162000265565b600088888888620003476000546001600160a01b031690565b6003546040516001600160a01b03909116908b908b908b906200036a90620007fa565b6200037e9998979695949392919062000b32565b604051809103906000f0801580156200039b573d6000803e3d6000fd5b50905060008190508060018d8d604051620003b892919062000af9565b90815260405190819003602001812080546001600160a01b039384166001600160a01b031991821617909155600280546001810182556000919091527f405787fa12a823e0f2b7631cc41b3ba8828b3321ca811111fa75cd3aa3bb5ace018054938516939091168317905562000432908e908e9062000af9565b60405180910390207f55dedb7d58379ec752fe0e23fe605405343e9312646924a19de2fad0e5ac52e68c8c8c8c8c8c8c60405162000477979695949392919062000ba7565b60405180910390a39b9a5050505050505050505050565b60606002805480602002602001604051908101604052809291908181526020018280548015620004e857602002820191906000526020600020905b81546001600160a01b03168152600190910190602001808311620004c9575b5050505050905090565b600281815481106200050357600080fd5b6000918252602090912001546001600160a01b0316905081565b620005276200074e565b6001600160a01b038116620005785760405162461bcd60e51b8152602060048201526016602482015275496e76616c696420627269646765206164647265737360501b604482015260640162000265565b600380546001600160a01b038381166001600160a01b03198316179092551660005b6002548110156200063b5760028181548110620005bb57620005bb62000c06565b600091825260209091200154604051633759c10960e11b81526001600160a01b03858116600483015290911690636eb3821290602401600060405180830381600087803b1580156200060c57600080fd5b505af115801562000621573d6000803e3d6000fd5b505050508080620006329062000c1c565b9150506200059a565b50816001600160a01b0316816001600160a01b03167faae9beddccf584528e87b66c6ff2563825c8a1433305b8a656e9b5f9bf39049960405160405180910390a35050565b6200068a6200074e565b620006966000620007aa565b565b600060018383604051620006ae92919062000af9565b908152604051908190036020019020546001600160a01b0316905092915050565b620006d96200074e565b6001600160a01b038116620007405760405162461bcd60e51b815260206004820152602660248201527f4f776e61626c653a206e6577206f776e657220697320746865207a65726f206160448201526564647265737360d01b606482015260840162000265565b6200074b81620007aa565b50565b6000546001600160a01b03163314620006965760405162461bcd60e51b815260206004820181905260248201527f4f776e61626c653a2063616c6c6572206973206e6f7420746865206f776e6572604482015260640162000265565b600080546001600160a01b038381166001600160a01b0319831681178455604051919092169283917f8be0079c531659141344cd1fd0a4f28419497f9722a3daafe3b4186f6b6457e09190a35050565b611ee28062000c4583390190565b60008083601f8401126200081b57600080fd5b50813567ffffffffffffffff8111156200083457600080fd5b6020830191508360208285010111156200084d57600080fd5b9250929050565b80356001600160a01b03811681146200086c57600080fd5b919050565b600080600080600080600080600060a08a8c0312156200089057600080fd5b893567ffffffffffffffff80821115620008a957600080fd5b620008b78d838e0162000808565b909b50995060208c0135915080821115620008d157600080fd5b620008df8d838e0162000808565b909950975060408c0135915080821115620008f957600080fd5b620009078d838e0162000808565b909750955060608c01359150808211156200092157600080fd5b50620009308c828d0162000808565b909450925062000945905060808b0162000854565b90509295985092959850929598565b6020808252825182820181905260009190848201906040850190845b81811015620009975783516001600160a01b03168352928401929184019160010162000970565b50909695505050505050565b600060208284031215620009b657600080fd5b5035919050565b600060208284031215620009d057600080fd5b620009db8262000854565b9392505050565b60008060208385031215620009f657600080fd5b823567ffffffffffffffff81111562000a0e57600080fd5b62000a1c8582860162000808565b90969095509350505050565b634e487b7160e01b600052604160045260246000fd5b60006020828403121562000a5157600080fd5b813567ffffffffffffffff8082111562000a6a57600080fd5b818401915084601f83011262000a7f57600080fd5b81358181111562000a945762000a9462000a28565b604051601f8201601f19908116603f0116810190838211818310171562000abf5762000abf62000a28565b8160405282815287602084870101111562000ad957600080fd5b826020860160208301376000928101602001929092525095945050505050565b8183823760009101908152919050565b81835281816020850137506000828201602090810191909152601f909101601f19169091010190565b60c08152600062000b4860c083018b8d62000b09565b828103602084015262000b5d818a8c62000b09565b6001600160a01b0389811660408601528881166060860152848203608086015290915062000b8d82878962000b09565b925080851660a085015250509a9950505050505050505050565b60808152600062000bbd60808301898b62000b09565b828103602084015262000bd281888a62000b09565b9050828103604084015262000be981868862000b09565b91505060018060a01b038316606083015298975050505050505050565b634e487b7160e01b600052603260045260246000fd5b60006001820162000c3d57634e487b7160e01b600052601160045260246000fd5b506001019056fe60806040523480156200001157600080fd5b5060405162001ee238038062001ee28339810160408190526200003491620002a7565b85856003620000448382620003fe565b506004620000538282620003fe565b50506006805460ff19169055506200006d60008562000120565b620000997f9f2df0fed2c77648de5860a4cc508cd0818c85b8b8a1ab4ceeef8d981c8956a68462000120565b620000c57f65d7a28e3265b37a6474929f336521b332c1681b933f6cb9f3376673440d862a8562000120565b60068054610100600160a81b0319166101006001600160a01b038616021790556007620000f38382620003fe565b50600880546001600160a01b0319166001600160a01b039290921691909117905550620004ca9350505050565b60008281526005602090815260408083206001600160a01b038516845290915290205460ff16620001c15760008281526005602090815260408083206001600160a01b03851684529091529020805460ff19166001179055620001803390565b6001600160a01b0316816001600160a01b0316837f2f8788117e7eff1d82e926ec794901d17c78024a50270940304540a733656f0d60405160405180910390a45b5050565b634e487b7160e01b600052604160045260246000fd5b600082601f830112620001ed57600080fd5b81516001600160401b03808211156200020a576200020a620001c5565b604051601f8301601f19908116603f01168101908282118183101715620002355762000235620001c5565b816040528381526020925086838588010111156200025257600080fd5b600091505b8382101562000276578582018301518183018401529082019062000257565b600093810190920192909252949350505050565b80516001600160a01b0381168114620002a257600080fd5b919050565b60008060008060008060c08789031215620002c157600080fd5b86516001600160401b0380821115620002d957600080fd5b620002e78a838b01620001db565b97506020890151915080821115620002fe57600080fd5b6200030c8a838b01620001db565b96506200031c60408a016200028a565b95506200032c60608a016200028a565b945060808901519150808211156200034357600080fd5b506200035289828a01620001db565b9250506200036360a088016200028a565b90509295509295509295565b600181811c908216806200038457607f821691505b602082108103620003a557634e487b7160e01b600052602260045260246000fd5b50919050565b601f821115620003f957600081815260208120601f850160051c81016020861015620003d45750805b601f850160051c820191505b81811015620003f557828155600101620003e0565b5050505b505050565b81516001600160401b038111156200041a576200041a620001c5565b62000432816200042b84546200036f565b84620003ab565b602080601f8311600181146200046a5760008415620004515750858301515b600019600386901b1c1916600185901b178555620003f5565b600085815260208120601f198616915b828110156200049b578886015182559484019460019091019084016200047a565b5085821015620004ba5787850151600019600388901b60f8161c191681555b5050505050600190811b01905550565b611a0880620004da6000396000f3fe608060405234801561001057600080fd5b50600436106101f05760003560e01c80636eb382121161010f578063a9059cbb116100a2578063d70d7c7811610071578063d70d7c7814610423578063dd62ed3e14610436578063e63ab1e914610449578063e78cea921461047057600080fd5b8063a9059cbb146103d0578063abb1dc44146103e3578063d5391393146103fb578063d547741f1461041057600080fd5b806391d14854116100de57806391d148541461039a57806395d89b41146103ad578063a217fddf146103b5578063a457c2d7146103bd57600080fd5b80636eb382121461034357806370a082311461035657806379cc67901461037f5780638456cb591461039257600080fd5b8063313ce5671161018757806342966c681161015657806342966c68146102f257806353638be51461030557806359e237151461030d5780635c975abb1461033857600080fd5b8063313ce567146102b557806336568abe146102c457806339509351146102d75780633f4ba83a146102ea57600080fd5b80631e458bee116101c35780631e458bee1461025757806323b872dd1461026c578063248a9ca31461027f5780632f2ff15d146102a257600080fd5b806301ffc9a7146101f557806306fdde031461021d578063095ea7b31461023257806318160ddd14610245575b600080fd5b6102086102033660046115cc565b610488565b60405190151581526020015b60405180910390f35b6102256104bf565b6040516102149190611646565b610208610240366004611675565b610551565b6002545b604051908152602001610214565b61026a61026536600461169f565b610569565b005b61020861027a3660046116d2565b610676565b61024961028d36600461170e565b60009081526005602052604090206001015490565b61026a6102b0366004611727565b61069a565b60405160128152602001610214565b61026a6102d2366004611727565b6106c4565b6102086102e5366004611675565b610742565b61026a610764565b61026a61030036600461170e565b610799565b6102256107a3565b600854610320906001600160a01b031681565b6040516001600160a01b039091168152602001610214565b60065460ff16610208565b61026a610351366004611753565b610831565b610249610364366004611753565b6001600160a01b031660009081526020819052604090205490565b61026a61038d366004611675565b61092b565b61026a610940565b6102086103a8366004611727565b610972565b61022561099d565b610249600081565b6102086103cb366004611675565b6109ac565b6102086103de366004611675565b610a27565b6103eb610a35565b604051610214949392919061176e565b6102496000805160206119b383398151915281565b61026a61041e366004611727565b610afd565b61026a6104313660046117a4565b610b22565b610249610444366004611820565b610c1e565b6102497f65d7a28e3265b37a6474929f336521b332c1681b933f6cb9f3376673440d862a81565b6006546103209061010090046001600160a01b031681565b60006001600160e01b03198216637965db0b60e01b14806104b957506301ffc9a760e01b6001600160e01b03198316145b92915050565b6060600380546104ce9061184a565b80601f01602080910402602001604051908101604052809291908181526020018280546104fa9061184a565b80156105475780601f1061051c57610100808354040283529160200191610547565b820191906000526020600020905b81548152906001019060200180831161052a57829003601f168201915b5050505050905090565b60003361055f818585610c49565b5060019392505050565b6000805160206119b383398151915261058181610d6d565b610589610d77565b6001600160a01b0384166105d85760405162461bcd60e51b8152602060048201526011602482015270125b9d985b1a59081c9958da5c1a595b9d607a1b60448201526064015b60405180910390fd5b600083116106225760405162461bcd60e51b8152602060048201526017602482015276416d6f756e74206d75737420626520706f73697469766560481b60448201526064016105cf565b61062c8484610dbf565b81846001600160a01b03167f7369d801113c713520ca653010d32c6bcd6778f0ffb3df0bc9efb8d85b687e448560405161066891815260200190565b60405180910390a350505050565b600033610684858285610e8a565b61068f858585610f04565b506001949350505050565b6000828152600560205260409020600101546106b581610d6d565b6106bf83836110b3565b505050565b6001600160a01b03811633146107345760405162461bcd60e51b815260206004820152602f60248201527f416363657373436f6e74726f6c3a2063616e206f6e6c792072656e6f756e636560448201526e103937b632b9903337b91039b2b63360891b60648201526084016105cf565b61073e8282611139565b5050565b60003361055f8185856107558383610c1e565b61075f919061189a565b610c49565b7f65d7a28e3265b37a6474929f336521b332c1681b933f6cb9f3376673440d862a61078e81610d6d565b6107966111a0565b50565b61079633826111f2565b600780546107b09061184a565b80601f01602080910402602001604051908101604052809291908181526020018280546107dc9061184a565b80156108295780601f106107fe57610100808354040283529160200191610829565b820191906000526020600020905b81548152906001019060200180831161080c57829003601f168201915b505050505081565b600061083c81610d6d565b6001600160a01b03821661088b5760405162461bcd60e51b8152602060048201526016602482015275496e76616c696420627269646765206164647265737360501b60448201526064016105cf565b60065461010090046001600160a01b031680156108ba576108ba6000805160206119b383398151915282611139565b6108d26000805160206119b3833981519152846110b3565b60068054610100600160a81b0319166101006001600160a01b0386811691820292909217909255604051908316907faae9beddccf584528e87b66c6ff2563825c8a1433305b8a656e9b5f9bf39049990600090a3505050565b610936823383610e8a565b61073e82826111f2565b7f65d7a28e3265b37a6474929f336521b332c1681b933f6cb9f3376673440d862a61096a81610d6d565b610796611330565b60009182526005602090815260408084206001600160a01b0393909316845291905290205460ff1690565b6060600480546104ce9061184a565b600033816109ba8286610c1e565b905083811015610a1a5760405162461bcd60e51b815260206004820152602560248201527f45524332303a2064656372656173656420616c6c6f77616e63652062656c6f77604482015264207a65726f60d81b60648201526084016105cf565b61068f8286868403610c49565b60003361055f818585610f04565b600854600654606091600091829182916007916001600160a01b0390811691610100900416610a6360025490565b838054610a6f9061184a565b80601f0160208091040260200160405190810160405280929190818152602001828054610a9b9061184a565b8015610ae85780601f10610abd57610100808354040283529160200191610ae8565b820191906000526020600020905b815481529060010190602001808311610acb57829003601f168201915b50505050509350935093509350935090919293565b600082815260056020526040902060010154610b1881610d6d565b6106bf8383611139565b610b2a610d77565b60008311610b745760405162461bcd60e51b8152602060048201526017602482015276416d6f756e74206d75737420626520706f73697469766560481b60448201526064016105cf565b33600090815260208190526040902054831115610bca5760405162461bcd60e51b8152602060048201526014602482015273496e73756666696369656e742062616c616e636560601b60448201526064016105cf565b610bd433846111f2565b336001600160a01b03167ffad31924d655455395c87544c8aa1ffdb5a7505a22a3c2e03f28003b6556a75f848484604051610c11939291906118ad565b60405180910390a2505050565b6001600160a01b03918216600090815260016020908152604080832093909416825291909152205490565b6001600160a01b038316610cab5760405162461bcd60e51b8152602060048201526024808201527f45524332303a20617070726f76652066726f6d20746865207a65726f206164646044820152637265737360e01b60648201526084016105cf565b6001600160a01b038216610d0c5760405162461bcd60e51b815260206004820152602260248201527f45524332303a20617070726f766520746f20746865207a65726f206164647265604482015261737360f01b60648201526084016105cf565b6001600160a01b0383811660008181526001602090815260408083209487168084529482529182902085905590518481527f8c5be1e5ebec7d5bd14f71427d1e84f3dd0314c0f7b2291e5b200ac8c7c3b925910160405180910390a3505050565b610796813361136d565b60065460ff1615610dbd5760405162461bcd60e51b815260206004820152601060248201526f14185d5cd8589b194e881c185d5cd95960821b60448201526064016105cf565b565b6001600160a01b038216610e155760405162461bcd60e51b815260206004820152601f60248201527f45524332303a206d696e7420746f20746865207a65726f20616464726573730060448201526064016105cf565b610e21600083836113c6565b8060026000828254610e33919061189a565b90915550506001600160a01b038216600081815260208181526040808320805486019055518481527fddf252ad1be2c89b69c2b068fc378daa952ba7f163c4a11628f55a4df523b3ef910160405180910390a35050565b6000610e968484610c1e565b90506000198114610efe5781811015610ef15760405162461bcd60e51b815260206004820152601d60248201527f45524332303a20696e73756666696369656e7420616c6c6f77616e636500000060448201526064016105cf565b610efe8484848403610c49565b50505050565b6001600160a01b038316610f685760405162461bcd60e51b815260206004820152602560248201527f45524332303a207472616e736665722066726f6d20746865207a65726f206164604482015264647265737360d81b60648201526084016105cf565b6001600160a01b038216610fca5760405162461bcd60e51b815260206004820152602360248201527f45524332303a207472616e7366657220746f20746865207a65726f206164647260448201526265737360e81b60648201526084016105cf565b610fd58383836113c6565b6001600160a01b0383166000908152602081905260409020548181101561104d5760405162461bcd60e51b815260206004820152602660248201527f45524332303a207472616e7366657220616d6f756e7420657863656564732062604482015265616c616e636560d01b60648201526084016105cf565b6001600160a01b03848116600081815260208181526040808320878703905593871680835291849020805487019055925185815290927fddf252ad1be2c89b69c2b068fc378daa952ba7f163c4a11628f55a4df523b3ef910160405180910390a3610efe565b6110bd8282610972565b61073e5760008281526005602090815260408083206001600160a01b03851684529091529020805460ff191660011790556110f53390565b6001600160a01b0316816001600160a01b0316837f2f8788117e7eff1d82e926ec794901d17c78024a50270940304540a733656f0d60405160405180910390a45050565b6111438282610972565b1561073e5760008281526005602090815260408083206001600160a01b0385168085529252808320805460ff1916905551339285917ff6391f5c32d9c69d2a47ea670b442974b53935d1edc7fd64eb21e047a839171b9190a45050565b6111a86113ce565b6006805460ff191690557f5db9ee0a495bf2e6ff9c91a7834c1ba4fdd244a5e8aa4e537bd38aeae4b073aa335b6040516001600160a01b03909116815260200160405180910390a1565b6001600160a01b0382166112525760405162461bcd60e51b815260206004820152602160248201527f45524332303a206275726e2066726f6d20746865207a65726f206164647265736044820152607360f81b60648201526084016105cf565b61125e826000836113c6565b6001600160a01b038216600090815260208190526040902054818110156112d25760405162461bcd60e51b815260206004820152602260248201527f45524332303a206275726e20616d6f756e7420657863656564732062616c616e604482015261636560f01b60648201526084016105cf565b6001600160a01b0383166000818152602081815260408083208686039055600280548790039055518581529192917fddf252ad1be2c89b69c2b068fc378daa952ba7f163c4a11628f55a4df523b3ef910160405180910390a3505050565b611338610d77565b6006805460ff191660011790557f62e78cea01bee320cd4e420270b5ea74000d11b0c9f74754ebdbfc544b05a2586111d53390565b6113778282610972565b61073e5761138481611417565b61138f836020611429565b6040516020016113a09291906118e3565b60408051601f198184030181529082905262461bcd60e51b82526105cf91600401611646565b6106bf610d77565b60065460ff16610dbd5760405162461bcd60e51b815260206004820152601460248201527314185d5cd8589b194e881b9bdd081c185d5cd95960621b60448201526064016105cf565b60606104b96001600160a01b03831660145b60606000611438836002611958565b61144390600261189a565b67ffffffffffffffff81111561145b5761145b61196f565b6040519080825280601f01601f191660200182016040528015611485576020820181803683370190505b509050600360fc1b816000815181106114a0576114a0611985565b60200101906001600160f81b031916908160001a905350600f60fb1b816001815181106114cf576114cf611985565b60200101906001600160f81b031916908160001a90535060006114f3846002611958565b6114fe90600161189a565b90505b6001811115611576576f181899199a1a9b1b9c1cb0b131b232b360811b85600f166010811061153257611532611985565b1a60f81b82828151811061154857611548611985565b60200101906001600160f81b031916908160001a90535060049490941c9361156f8161199b565b9050611501565b5083156115c55760405162461bcd60e51b815260206004820181905260248201527f537472696e67733a20686578206c656e67746820696e73756666696369656e7460448201526064016105cf565b9392505050565b6000602082840312156115de57600080fd5b81356001600160e01b0319811681146115c557600080fd5b60005b838110156116115781810151838201526020016115f9565b50506000910152565b600081518084526116328160208601602086016115f6565b601f01601f19169290920160200192915050565b6020815260006115c5602083018461161a565b80356001600160a01b038116811461167057600080fd5b919050565b6000806040838503121561168857600080fd5b61169183611659565b946020939093013593505050565b6000806000606084860312156116b457600080fd5b6116bd84611659565b95602085013595506040909401359392505050565b6000806000606084860312156116e757600080fd5b6116f084611659565b92506116fe60208501611659565b9150604084013590509250925092565b60006020828403121561172057600080fd5b5035919050565b6000806040838503121561173a57600080fd5b8235915061174a60208401611659565b90509250929050565b60006020828403121561176557600080fd5b6115c582611659565b608081526000611781608083018761161a565b6001600160a01b0395861660208401529390941660408201526060015292915050565b6000806000604084860312156117b957600080fd5b83359250602084013567ffffffffffffffff808211156117d857600080fd5b818601915086601f8301126117ec57600080fd5b8135818111156117fb57600080fd5b87602082850101111561180d57600080fd5b6020830194508093505050509250925092565b6000806040838503121561183357600080fd5b61183c83611659565b915061174a60208401611659565b600181811c9082168061185e57607f821691505b60208210810361187e57634e487b7160e01b600052602260045260246000fd5b50919050565b634e487b7160e01b600052601160045260246000fd5b808201808211156104b9576104b9611884565b83815260406020820152816040820152818360608301376000818301606090810191909152601f909201601f1916010192915050565b7f416363657373436f6e74726f6c3a206163636f756e742000000000000000000081526000835161191b8160178501602088016115f6565b7001034b99036b4b9b9b4b733903937b6329607d1b601791840191820152835161194c8160288401602088016115f6565b01602801949350505050565b80820281158282048414176104b9576104b9611884565b634e487b7160e01b600052604160045260246000fd5b634e487b7160e01b600052603260045260246000fd5b6000816119aa576119aa611884565b50600019019056fe9f2df0fed2c77648de5860a4cc508cd0818c85b8b8a1ab4ceeef8d981c8956a6a2646970667358221220f2d9937aba8b61edae7c2e8022b8cb3ba5c3299a73a19b6f47364dff36f85e0364736f6c63430008130033a264697066735822122001aec8ae68cc0d74b649c064b37630677bcd76d138584685aeeae86ae12d592f64736f6c63430008130033",
  "linkReferences": {},
  "deployedLinkReferences": {}
}