{
  "_format": "hh-sol-artifact-1",
  "contractName": "BurnModule",
  "sourceName": "tokenomics/BurnModule/BurnModule.sol",
  "abi": [
    {
      "inputs": [
        {
          "internalType": "address",
          "name": "_token",
          "type": "address"
        },
        {
          "internalType": "address",
          "name": "_manager",
          "type": "address"
        }
      ],
      "stateMutability": "nonpayable",
      "type": "constructor"
    },
    {
      "inputs": [
        {
          "internalType": "uint256",
          "name": "amount",
          "type": "uint256"
        }
      ],
      "name": "burnFees",
      "outputs": [],
      "stateMutability": "nonpayable",
      "type": "function"
    },
    {
      "inputs": [],
      "name": "manager",
      "outputs": [
        {
          "internalType": "contract BurnManager",
          "name": "",
          "type": "address"
        }
      ],
      "stateMutability": "view",
      "type": "function"
    },
    {
      "inputs": [],
      "name": "token",
      "outputs": [
        {
          "internalType": "contract DRTToken",
          "name": "",
          "type": "address"
        }
      ],
      "stateMutability": "view",
      "type": "function"
    }
  ],
  "bytecode": "0x60c060405234801561001057600080fd5b506040516106cb3803806106cb83398181016040528101906100329190610104565b8173ffffffffffffffffffffffffffffffffffffffff1660a08173ffffffffffffffffffffffffffffffffffffffff16815250508073ffffffffffffffffffffffffffffffffffffffff1660808173ffffffffffffffffffffffffffffffffffffffff16815250505050610144565b600080fd5b600073ffffffffffffffffffffffffffffffffffffffff82169050919050565b60006100d1826100a6565b9050919050565b6100e1816100c6565b81146100ec57600080fd5b50565b6000815190506100fe816100d8565b92915050565b6000806040838503121561011b5761011a6100a1565b5b6000610129858286016100ef565b925050602061013a858286016100ef565b9150509250929050565b60805160a0516105476101846000396000818160a00152818161014901526102bc01526000818161018501528181610208015261029801526105476000f3fe608060405234801561001057600080fd5b50600436106100415760003560e01c80630342a6ba14610046578063481c6a7514610062578063fc0c546a14610080575b600080fd5b610060600480360381019061005b9190610319565b61009e565b005b61006a610296565b60405161007791906103c5565b60405180910390f35b6100886102ba565b6040516100959190610401565b60405180910390f35b7f000000000000000000000000000000000000000000000000000000000000000073ffffffffffffffffffffffffffffffffffffffff166323b872dd3330846040518463ffffffff1660e01b81526004016100fb9392919061044c565b6020604051808303816000875af115801561011a573d6000803e3d6000fd5b505050506040513d601f19601f8201168201806040525081019061013e91906104bb565b61014757600080fd5b7f000000000000000000000000000000000000000000000000000000000000000073ffffffffffffffffffffffffffffffffffffffff1663095ea7b37f0000000000000000000000000000000000000000000000000000000000000000836040518363ffffffff1660e01b81526004016101c29291906104e8565b6020604051808303816000875af11580156101e1573d6000803e3d6000fd5b505050506040513d601f19601f8201168201806040525081019061020591906104bb565b507f000000000000000000000000000000000000000000000000000000000000000073ffffffffffffffffffffffffffffffffffffffff16639dc29fac30836040518363ffffffff1660e01b81526004016102619291906104e8565b600060405180830381600087803b15801561027b57600080fd5b505af115801561028f573d6000803e3d6000fd5b5050505050565b7f000000000000000000000000000000000000000000000000000000000000000081565b7f000000000000000000000000000000000000000000000000000000000000000081565b600080fd5b6000819050919050565b6102f6816102e3565b811461030157600080fd5b50565b600081359050610313816102ed565b92915050565b60006020828403121561032f5761032e6102de565b5b600061033d84828501610304565b91505092915050565b600073ffffffffffffffffffffffffffffffffffffffff82169050919050565b6000819050919050565b600061038b61038661038184610346565b610366565b610346565b9050919050565b600061039d82610370565b9050919050565b60006103af82610392565b9050919050565b6103bf816103a4565b82525050565b60006020820190506103da60008301846103b6565b92915050565b60006103eb82610392565b9050919050565b6103fb816103e0565b82525050565b600060208201905061041660008301846103f2565b92915050565b600061042782610346565b9050919050565b6104378161041c565b82525050565b610446816102e3565b82525050565b6000606082019050610461600083018661042e565b61046e602083018561042e565b61047b604083018461043d565b949350505050565b60008115159050919050565b61049881610483565b81146104a357600080fd5b50565b6000815190506104b58161048f565b92915050565b6000602082840312156104d1576104d06102de565b5b60006104df848285016104a6565b91505092915050565b60006040820190506104fd600083018561042e565b61050a602083018461043d565b939250505056fea2646970667358221220a86d9a147983ba127da9e91870e439fc07f99748aa1d9bd82cdceb9407c50c2a64736f6c63430008140033",
  "linkReferences": {},
  "deployedLinkReferences": {}
}