{
  "_format": "hh-sol-artifact-1",
  "contractName": "VestingSchedule",
  "sourceName": "tokenomics/VestingSchedule.sol",
  "abi": [
    {
      "inputs": [
        {
          "internalType": "address",
          "name": "tokenAddress",
          "type": "address"
        }
      ],
      "stateMutability": "nonpayable",
      "type": "constructor"
    },
    {
      "inputs": [
        {
          "internalType": "address",
          "name": "beneficiary",
          "type": "address"
        },
        {
          "internalType": "uint256",
          "name": "amount",
          "type": "uint256"
        },
        {
          "internalType": "uint64",
          "name": "start",
          "type": "uint64"
        },
        {
          "internalType": "uint64",
          "name": "cliff",
          "type": "uint64"
        },
        {
          "internalType": "uint64",
          "name": "duration",
          "type": "uint64"
        }
      ],
      "name": "addGrant",
      "outputs": [],
      "stateMutability": "nonpayable",
      "type": "function"
    },
    {
      "inputs": [
        {
          "internalType": "address",
          "name": "",
          "type": "address"
        }
      ],
      "name": "grants",
      "outputs": [
        {
          "internalType": "uint256",
          "name": "amount",
          "type": "uint256"
        },
        {
          "internalType": "uint64",
          "name": "start",
          "type": "uint64"
        },
        {
          "internalType": "uint64",
          "name": "cliff",
          "type": "uint64"
        },
        {
          "internalType": "uint64",
          "name": "duration",
          "type": "uint64"
        },
        {
          "internalType": "uint256",
          "name": "released",
          "type": "uint256"
        }
      ],
      "stateMutability": "view",
      "type": "function"
    },
    {
      "inputs": [
        {
          "internalType": "address",
          "name": "beneficiary",
          "type": "address"
        }
      ],
      "name": "releasable",
      "outputs": [
        {
          "internalType": "uint256",
          "name": "",
          "type": "uint256"
        }
      ],
      "stateMutability": "view",
      "type": "function"
    },
    {
      "inputs": [],
      "name": "release",
      "outputs": [],
      "stateMutability": "nonpayable",
      "type": "function"
    },
    {
      "inputs": [],
      "name": "token",
      "outputs": [
        {
          "internalType": "contract DGTToken",
          "name": "",
          "type": "address"
        }
      ],
      "stateMutability": "view",
      "type": "function"
    }
  ],
  "bytecode": "0x60a060405234801561001057600080fd5b50604051610ce3380380610ce3833981810160405281019061003291906100cf565b8073ffffffffffffffffffffffffffffffffffffffff1660808173ffffffffffffffffffffffffffffffffffffffff1681525050506100fc565b600080fd5b600073ffffffffffffffffffffffffffffffffffffffff82169050919050565b600061009c82610071565b9050919050565b6100ac81610091565b81146100b757600080fd5b50565b6000815190506100c9816100a3565b92915050565b6000602082840312156100e5576100e461006c565b5b60006100f3848285016100ba565b91505092915050565b608051610bc561011e6000396000818161036101526106270152610bc56000f3fe608060405234801561001057600080fd5b50600436106100575760003560e01c80633b89403b1461005c57806386d1a69f14610078578063a3f8eace14610082578063b869cea3146100b2578063fc0c546a146100e6575b600080fd5b61007660048036038101906100719190610722565b610104565b005b6100806102b7565b005b61009c6004803603810190610097919061079d565b610409565b6040516100a991906107d9565b60405180910390f35b6100cc60048036038101906100c7919061079d565b6105b3565b6040516100dd959493929190610803565b60405180910390f35b6100ee610625565b6040516100fb91906108b5565b60405180910390f35b60008060008773ffffffffffffffffffffffffffffffffffffffff1673ffffffffffffffffffffffffffffffffffffffff1681526020019081526020016000206000015414610188576040517f08c379a000000000000000000000000000000000000000000000000000000000815260040161017f9061092d565b60405180910390fd5b6040518060a001604052808581526020018467ffffffffffffffff1681526020018367ffffffffffffffff1681526020018267ffffffffffffffff16815260200160008152506000808773ffffffffffffffffffffffffffffffffffffffff1673ffffffffffffffffffffffffffffffffffffffff1681526020019081526020016000206000820151816000015560208201518160010160006101000a81548167ffffffffffffffff021916908367ffffffffffffffff16021790555060408201518160010160086101000a81548167ffffffffffffffff021916908367ffffffffffffffff16021790555060608201518160010160106101000a81548167ffffffffffffffff021916908367ffffffffffffffff160217905550608082015181600201559050505050505050565b60006102c233610409565b905060008111610307576040517f08c379a00000000000000000000000000000000000000000000000000000000081526004016102fe90610999565b60405180910390fd5b806000803373ffffffffffffffffffffffffffffffffffffffff1673ffffffffffffffffffffffffffffffffffffffff168152602001908152602001600020600201600082825461035891906109e8565b925050819055507f000000000000000000000000000000000000000000000000000000000000000073ffffffffffffffffffffffffffffffffffffffff1663a9059cbb33836040518363ffffffff1660e01b81526004016103ba929190610a2b565b6020604051808303816000875af11580156103d9573d6000803e3d6000fd5b505050506040513d601f19601f820116820180604052508101906103fd9190610a8c565b61040657600080fd5b50565b6000806000808473ffffffffffffffffffffffffffffffffffffffff1673ffffffffffffffffffffffffffffffffffffffff1681526020019081526020016000206040518060a0016040529081600082015481526020016001820160009054906101000a900467ffffffffffffffff1667ffffffffffffffff1667ffffffffffffffff1681526020016001820160089054906101000a900467ffffffffffffffff1667ffffffffffffffff1667ffffffffffffffff1681526020016001820160109054906101000a900467ffffffffffffffff1667ffffffffffffffff1667ffffffffffffffff1681526020016002820154815250509050806040015167ffffffffffffffff164210156105215760009150506105ae565b6000816020015167ffffffffffffffff164261053d9190610ab9565b9050816060015167ffffffffffffffff16811061057157816080015182600001516105689190610ab9565b925050506105ae565b8160800151826060015167ffffffffffffffff168284600001516105959190610aed565b61059f9190610b5e565b6105a99190610ab9565b925050505b919050565b60006020528060005260406000206000915090508060000154908060010160009054906101000a900467ffffffffffffffff16908060010160089054906101000a900467ffffffffffffffff16908060010160109054906101000a900467ffffffffffffffff16908060020154905085565b7f000000000000000000000000000000000000000000000000000000000000000081565b600080fd5b600073ffffffffffffffffffffffffffffffffffffffff82169050919050565b60006106798261064e565b9050919050565b6106898161066e565b811461069457600080fd5b50565b6000813590506106a681610680565b92915050565b6000819050919050565b6106bf816106ac565b81146106ca57600080fd5b50565b6000813590506106dc816106b6565b92915050565b600067ffffffffffffffff82169050919050565b6106ff816106e2565b811461070a57600080fd5b50565b60008135905061071c816106f6565b92915050565b600080600080600060a0868803121561073e5761073d610649565b5b600061074c88828901610697565b955050602061075d888289016106cd565b945050604061076e8882890161070d565b935050606061077f8882890161070d565b92505060806107908882890161070d565b9150509295509295909350565b6000602082840312156107b3576107b2610649565b5b60006107c184828501610697565b91505092915050565b6107d3816106ac565b82525050565b60006020820190506107ee60008301846107ca565b92915050565b6107fd816106e2565b82525050565b600060a08201905061081860008301886107ca565b61082560208301876107f4565b61083260408301866107f4565b61083f60608301856107f4565b61084c60808301846107ca565b9695505050505050565b6000819050919050565b600061087b6108766108718461064e565b610856565b61064e565b9050919050565b600061088d82610860565b9050919050565b600061089f82610882565b9050919050565b6108af81610894565b82525050565b60006020820190506108ca60008301846108a6565b92915050565b600082825260208201905092915050565b7f6772616e74206578697374730000000000000000000000000000000000000000600082015250565b6000610917600c836108d0565b9150610922826108e1565b602082019050919050565b600060208201905081810360008301526109468161090a565b9050919050565b7f6e6f7468696e6720746f2072656c656173650000000000000000000000000000600082015250565b60006109836012836108d0565b915061098e8261094d565b602082019050919050565b600060208201905081810360008301526109b281610976565b9050919050565b7f4e487b7100000000000000000000000000000000000000000000000000000000600052601160045260246000fd5b60006109f3826106ac565b91506109fe836106ac565b9250828201905080821115610a1657610a156109b9565b5b92915050565b610a258161066e565b82525050565b6000604082019050610a406000830185610a1c565b610a4d60208301846107ca565b9392505050565b60008115159050919050565b610a6981610a54565b8114610a7457600080fd5b50565b600081519050610a8681610a60565b92915050565b600060208284031215610aa257610aa1610649565b5b6000610ab084828501610a77565b91505092915050565b6000610ac4826106ac565b9150610acf836106ac565b9250828203905081811115610ae757610ae66109b9565b5b92915050565b6000610af8826106ac565b9150610b03836106ac565b9250828202610b11816106ac565b91508282048414831517610b2857610b276109b9565b5b5092915050565b7f4e487b7100000000000000000000000000000000000000000000000000000000600052601260045260246000fd5b6000610b69826106ac565b9150610b74836106ac565b925082610b8457610b83610b2f565b5b82820490509291505056fea2646970667358221220625d9b82bee0d5578bbd2cca8a4d8228eb5892baf9adbb514c030b6abb26566b64736f6c63430008140033",
  "linkReferences": {},
  "deployedLinkReferences": {}
}